{
	"contracts/4_getSenderAddress.sol": {
		"GetSenderAddress": {
			"abi": [
				{
					"inputs": [],
					"stateMutability": "nonpayable",
					"type": "constructor"
				},
				{
					"inputs": [],
					"name": "errorPermissions",
					"outputs": [
						{
							"internalType": "string",
							"name": "",
							"type": "string"
						}
					],
					"stateMutability": "nonpayable",
					"type": "function"
				},
				{
					"inputs": [],
					"name": "getSenderAddress",
					"outputs": [
						{
							"internalType": "address",
							"name": "",
							"type": "address"
						}
					],
					"stateMutability": "view",
					"type": "function"
				},
				{
					"inputs": [],
					"name": "isAdmin",
					"outputs": [
						{
							"internalType": "bool",
							"name": "",
							"type": "bool"
						}
					],
					"stateMutability": "view",
					"type": "function"
				},
				{
					"inputs": [],
					"name": "message",
					"outputs": [
						{
							"internalType": "string",
							"name": "",
							"type": "string"
						}
					],
					"stateMutability": "view",
					"type": "function"
				}
			],
			"devdoc": {
				"kind": "dev",
				"methods": {},
				"version": 1
			},
			"evm": {
				"assembly": "    /* \"contracts/4_getSenderAddress.sol\":60:703  contract GetSenderAddress {... */\n  mstore(0x40, 0x80)\n    /* \"contracts/4_getSenderAddress.sol\":160:218  constructor() {... */\n  callvalue\n  dup1\n  iszero\n  tag_1\n  jumpi\n  0x00\n  dup1\n  revert\ntag_1:\n  pop\n    /* \"contracts/4_getSenderAddress.sol\":200:210  msg.sender */\n  caller\n    /* \"contracts/4_getSenderAddress.sol\":185:197  adminAddress */\n  0x00\n  dup1\n    /* \"contracts/4_getSenderAddress.sol\":185:210  adminAddress = msg.sender */\n  0x0100\n  exp\n  dup2\n  sload\n  dup2\n  0xffffffffffffffffffffffffffffffffffffffff\n  mul\n  not\n  and\n  swap1\n  dup4\n  0xffffffffffffffffffffffffffffffffffffffff\n  and\n  mul\n  or\n  swap1\n  sstore\n  pop\n    /* \"contracts/4_getSenderAddress.sol\":60:703  contract GetSenderAddress {... */\n  dataSize(sub_0)\n  dup1\n  dataOffset(sub_0)\n  0x00\n  codecopy\n  0x00\n  return\nstop\n\nsub_0: assembly {\n        /* \"contracts/4_getSenderAddress.sol\":60:703  contract GetSenderAddress {... */\n      mstore(0x40, 0x80)\n      callvalue\n      dup1\n      iszero\n      tag_1\n      jumpi\n      0x00\n      dup1\n      revert\n    tag_1:\n      pop\n      jumpi(tag_2, lt(calldatasize, 0x04))\n      shr(0xe0, calldataload(0x00))\n      dup1\n      0x3096a04f\n      eq\n      tag_3\n      jumpi\n      dup1\n      0x42948e18\n      eq\n      tag_4\n      jumpi\n      dup1\n      0xb6db75a0\n      eq\n      tag_5\n      jumpi\n      dup1\n      0xe21f37ce\n      eq\n      tag_6\n      jumpi\n    tag_2:\n      0x00\n      dup1\n      revert\n        /* \"contracts/4_getSenderAddress.sol\":399:546  function errorPermissions() public returns (string memory){... */\n    tag_3:\n      tag_7\n      tag_8\n      jump\t// in\n    tag_7:\n      mload(0x40)\n      tag_9\n      swap2\n      swap1\n      tag_10\n      jump\t// in\n    tag_9:\n      mload(0x40)\n      dup1\n      swap2\n      sub\n      swap1\n      return\n        /* \"contracts/4_getSenderAddress.sol\":558:700  function getSenderAddress() public view returns(address) {... */\n    tag_4:\n      tag_11\n      tag_12\n      jump\t// in\n    tag_11:\n      mload(0x40)\n      tag_13\n      swap2\n      swap1\n      tag_14\n      jump\t// in\n    tag_13:\n      mload(0x40)\n      dup1\n      swap2\n      sub\n      swap1\n      return\n        /* \"contracts/4_getSenderAddress.sol\":227:387  function isAdmin() public view returns (bool){... */\n    tag_5:\n      tag_15\n      tag_16\n      jump\t// in\n    tag_15:\n      mload(0x40)\n      tag_17\n      swap2\n      swap1\n      tag_18\n      jump\t// in\n    tag_17:\n      mload(0x40)\n      dup1\n      swap2\n      sub\n      swap1\n      return\n        /* \"contracts/4_getSenderAddress.sol\":130:151  string public message */\n    tag_6:\n      tag_19\n      tag_20\n      jump\t// in\n    tag_19:\n      mload(0x40)\n      tag_21\n      swap2\n      swap1\n      tag_10\n      jump\t// in\n    tag_21:\n      mload(0x40)\n      dup1\n      swap2\n      sub\n      swap1\n      return\n        /* \"contracts/4_getSenderAddress.sol\":399:546  function errorPermissions() public returns (string memory){... */\n    tag_8:\n        /* \"contracts/4_getSenderAddress.sol\":443:456  string memory */\n      0x60\n        /* \"contracts/4_getSenderAddress.sol\":468:513  message = \"error - insufqficient permissions\" */\n      mload(0x40)\n      dup1\n      0x60\n      add\n      0x40\n      mstore\n      dup1\n      0x21\n      dup2\n      mstore\n      0x20\n      add\n      data_f91d9f9c30b87de79ab80c9dbd989ea2ab1495f54673668222810b101f52ceb2\n      0x21\n      swap2\n      codecopy\n        /* \"contracts/4_getSenderAddress.sol\":468:475  message */\n      0x01\n        /* \"contracts/4_getSenderAddress.sol\":468:513  message = \"error - insufqficient permissions\" */\n      swap1\n      dup2\n      tag_23\n      swap2\n      swap1\n      tag_24\n      jump\t// in\n    tag_23:\n      pop\n        /* \"contracts/4_getSenderAddress.sol\":531:538  message */\n      0x01\n        /* \"contracts/4_getSenderAddress.sol\":524:538  return message */\n      dup1\n      sload\n      tag_25\n      swap1\n      tag_26\n      jump\t// in\n    tag_25:\n      dup1\n      0x1f\n      add\n      0x20\n      dup1\n      swap2\n      div\n      mul\n      0x20\n      add\n      mload(0x40)\n      swap1\n      dup2\n      add\n      0x40\n      mstore\n      dup1\n      swap3\n      swap2\n      swap1\n      dup2\n      dup2\n      mstore\n      0x20\n      add\n      dup3\n      dup1\n      sload\n      tag_27\n      swap1\n      tag_26\n      jump\t// in\n    tag_27:\n      dup1\n      iszero\n      tag_28\n      jumpi\n      dup1\n      0x1f\n      lt\n      tag_29\n      jumpi\n      0x0100\n      dup1\n      dup4\n      sload\n      div\n      mul\n      dup4\n      mstore\n      swap2\n      0x20\n      add\n      swap2\n      jump(tag_28)\n    tag_29:\n      dup3\n      add\n      swap2\n      swap1\n      0x00\n      mstore\n      keccak256(0x00, 0x20)\n      swap1\n    tag_30:\n      dup2\n      sload\n      dup2\n      mstore\n      swap1\n      0x01\n      add\n      swap1\n      0x20\n      add\n      dup1\n      dup4\n      gt\n      tag_30\n      jumpi\n      dup3\n      swap1\n      sub\n      0x1f\n      and\n      dup3\n      add\n      swap2\n    tag_28:\n      pop\n      pop\n      pop\n      pop\n      pop\n      swap1\n      pop\n        /* \"contracts/4_getSenderAddress.sol\":399:546  function errorPermissions() public returns (string memory){... */\n      swap1\n      jump\t// out\n        /* \"contracts/4_getSenderAddress.sol\":558:700  function getSenderAddress() public view returns(address) {... */\n    tag_12:\n        /* \"contracts/4_getSenderAddress.sol\":606:613  address */\n      0x00\n        /* \"contracts/4_getSenderAddress.sol\":639:648  isAdmin() */\n      tag_32\n        /* \"contracts/4_getSenderAddress.sol\":639:646  isAdmin */\n      tag_16\n        /* \"contracts/4_getSenderAddress.sol\":639:648  isAdmin() */\n      jump\t// in\n    tag_32:\n        /* \"contracts/4_getSenderAddress.sol\":636:693  if(isAdmin()) {... */\n      iszero\n      tag_33\n      jumpi\n        /* \"contracts/4_getSenderAddress.sol\":671:681  msg.sender */\n      caller\n        /* \"contracts/4_getSenderAddress.sol\":664:681  return msg.sender */\n      swap1\n      pop\n      jump(tag_31)\n        /* \"contracts/4_getSenderAddress.sol\":636:693  if(isAdmin()) {... */\n    tag_33:\n        /* \"contracts/4_getSenderAddress.sol\":558:700  function getSenderAddress() public view returns(address) {... */\n    tag_31:\n      swap1\n      jump\t// out\n        /* \"contracts/4_getSenderAddress.sol\":227:387  function isAdmin() public view returns (bool){... */\n    tag_16:\n        /* \"contracts/4_getSenderAddress.sol\":267:271  bool */\n      0x00\n        /* \"contracts/4_getSenderAddress.sol\":300:312  adminAddress */\n      dup1\n      0x00\n      swap1\n      sload\n      swap1\n      0x0100\n      exp\n      swap1\n      div\n      0xffffffffffffffffffffffffffffffffffffffff\n      and\n        /* \"contracts/4_getSenderAddress.sol\":286:312  msg.sender == adminAddress */\n      0xffffffffffffffffffffffffffffffffffffffff\n      and\n        /* \"contracts/4_getSenderAddress.sol\":286:296  msg.sender */\n      caller\n        /* \"contracts/4_getSenderAddress.sol\":286:312  msg.sender == adminAddress */\n      0xffffffffffffffffffffffffffffffffffffffff\n      and\n      sub\n        /* \"contracts/4_getSenderAddress.sol\":283:379  if(msg.sender == adminAddress) {... */\n      tag_35\n      jumpi\n        /* \"contracts/4_getSenderAddress.sol\":336:340  true */\n      0x01\n        /* \"contracts/4_getSenderAddress.sol\":329:340  return true */\n      swap1\n      pop\n      jump(tag_34)\n        /* \"contracts/4_getSenderAddress.sol\":283:379  if(msg.sender == adminAddress) {... */\n    tag_35:\n        /* \"contracts/4_getSenderAddress.sol\":374:379  false */\n      0x00\n        /* \"contracts/4_getSenderAddress.sol\":367:379  return false */\n      swap1\n      pop\n        /* \"contracts/4_getSenderAddress.sol\":227:387  function isAdmin() public view returns (bool){... */\n    tag_34:\n      swap1\n      jump\t// out\n        /* \"contracts/4_getSenderAddress.sol\":130:151  string public message */\n    tag_20:\n      0x01\n      dup1\n      sload\n      tag_37\n      swap1\n      tag_26\n      jump\t// in\n    tag_37:\n      dup1\n      0x1f\n      add\n      0x20\n      dup1\n      swap2\n      div\n      mul\n      0x20\n      add\n      mload(0x40)\n      swap1\n      dup2\n      add\n      0x40\n      mstore\n      dup1\n      swap3\n      swap2\n      swap1\n      dup2\n      dup2\n      mstore\n      0x20\n      add\n      dup3\n      dup1\n      sload\n      tag_38\n      swap1\n      tag_26\n      jump\t// in\n    tag_38:\n      dup1\n      iszero\n      tag_39\n      jumpi\n      dup1\n      0x1f\n      lt\n      tag_40\n      jumpi\n      0x0100\n      dup1\n      dup4\n      sload\n      div\n      mul\n      dup4\n      mstore\n      swap2\n      0x20\n      add\n      swap2\n      jump(tag_39)\n    tag_40:\n      dup3\n      add\n      swap2\n      swap1\n      0x00\n      mstore\n      keccak256(0x00, 0x20)\n      swap1\n    tag_41:\n      dup2\n      sload\n      dup2\n      mstore\n      swap1\n      0x01\n      add\n      swap1\n      0x20\n      add\n      dup1\n      dup4\n      gt\n      tag_41\n      jumpi\n      dup3\n      swap1\n      sub\n      0x1f\n      and\n      dup3\n      add\n      swap2\n    tag_39:\n      pop\n      pop\n      pop\n      pop\n      pop\n      dup2\n      jump\t// out\n        /* \"#utility.yul\":7:106   */\n    tag_42:\n        /* \"#utility.yul\":59:65   */\n      0x00\n        /* \"#utility.yul\":93:98   */\n      dup2\n        /* \"#utility.yul\":87:99   */\n      mload\n        /* \"#utility.yul\":77:99   */\n      swap1\n      pop\n        /* \"#utility.yul\":7:106   */\n      swap2\n      swap1\n      pop\n      jump\t// out\n        /* \"#utility.yul\":112:281   */\n    tag_43:\n        /* \"#utility.yul\":196:207   */\n      0x00\n        /* \"#utility.yul\":230:236   */\n      dup3\n        /* \"#utility.yul\":225:228   */\n      dup3\n        /* \"#utility.yul\":218:237   */\n      mstore\n        /* \"#utility.yul\":270:274   */\n      0x20\n        /* \"#utility.yul\":265:268   */\n      dup3\n        /* \"#utility.yul\":261:275   */\n      add\n        /* \"#utility.yul\":246:275   */\n      swap1\n      pop\n        /* \"#utility.yul\":112:281   */\n      swap3\n      swap2\n      pop\n      pop\n      jump\t// out\n        /* \"#utility.yul\":287:533   */\n    tag_44:\n        /* \"#utility.yul\":368:369   */\n      0x00\n        /* \"#utility.yul\":378:491   */\n    tag_74:\n        /* \"#utility.yul\":392:398   */\n      dup4\n        /* \"#utility.yul\":389:390   */\n      dup2\n        /* \"#utility.yul\":386:399   */\n      lt\n        /* \"#utility.yul\":378:491   */\n      iszero\n      tag_76\n      jumpi\n        /* \"#utility.yul\":477:478   */\n      dup1\n        /* \"#utility.yul\":472:475   */\n      dup3\n        /* \"#utility.yul\":468:479   */\n      add\n        /* \"#utility.yul\":462:480   */\n      mload\n        /* \"#utility.yul\":458:459   */\n      dup2\n        /* \"#utility.yul\":453:456   */\n      dup5\n        /* \"#utility.yul\":449:460   */\n      add\n        /* \"#utility.yul\":442:481   */\n      mstore\n        /* \"#utility.yul\":414:416   */\n      0x20\n        /* \"#utility.yul\":411:412   */\n      dup2\n        /* \"#utility.yul\":407:417   */\n      add\n        /* \"#utility.yul\":402:417   */\n      swap1\n      pop\n        /* \"#utility.yul\":378:491   */\n      jump(tag_74)\n    tag_76:\n        /* \"#utility.yul\":525:526   */\n      0x00\n        /* \"#utility.yul\":516:522   */\n      dup5\n        /* \"#utility.yul\":511:514   */\n      dup5\n        /* \"#utility.yul\":507:523   */\n      add\n        /* \"#utility.yul\":500:527   */\n      mstore\n        /* \"#utility.yul\":349:533   */\n      pop\n        /* \"#utility.yul\":287:533   */\n      pop\n      pop\n      pop\n      jump\t// out\n        /* \"#utility.yul\":539:641   */\n    tag_45:\n        /* \"#utility.yul\":580:586   */\n      0x00\n        /* \"#utility.yul\":631:633   */\n      0x1f\n        /* \"#utility.yul\":627:634   */\n      not\n        /* \"#utility.yul\":622:624   */\n      0x1f\n        /* \"#utility.yul\":615:620   */\n      dup4\n        /* \"#utility.yul\":611:625   */\n      add\n        /* \"#utility.yul\":607:635   */\n      and\n        /* \"#utility.yul\":597:635   */\n      swap1\n      pop\n        /* \"#utility.yul\":539:641   */\n      swap2\n      swap1\n      pop\n      jump\t// out\n        /* \"#utility.yul\":647:1024   */\n    tag_46:\n        /* \"#utility.yul\":735:738   */\n      0x00\n        /* \"#utility.yul\":763:802   */\n      tag_79\n        /* \"#utility.yul\":796:801   */\n      dup3\n        /* \"#utility.yul\":763:802   */\n      tag_42\n      jump\t// in\n    tag_79:\n        /* \"#utility.yul\":818:889   */\n      tag_80\n        /* \"#utility.yul\":882:888   */\n      dup2\n        /* \"#utility.yul\":877:880   */\n      dup6\n        /* \"#utility.yul\":818:889   */\n      tag_43\n      jump\t// in\n    tag_80:\n        /* \"#utility.yul\":811:889   */\n      swap4\n      pop\n        /* \"#utility.yul\":898:963   */\n      tag_81\n        /* \"#utility.yul\":956:962   */\n      dup2\n        /* \"#utility.yul\":951:954   */\n      dup6\n        /* \"#utility.yul\":944:948   */\n      0x20\n        /* \"#utility.yul\":937:942   */\n      dup7\n        /* \"#utility.yul\":933:949   */\n      add\n        /* \"#utility.yul\":898:963   */\n      tag_44\n      jump\t// in\n    tag_81:\n        /* \"#utility.yul\":988:1017   */\n      tag_82\n        /* \"#utility.yul\":1010:1016   */\n      dup2\n        /* \"#utility.yul\":988:1017   */\n      tag_45\n      jump\t// in\n    tag_82:\n        /* \"#utility.yul\":983:986   */\n      dup5\n        /* \"#utility.yul\":979:1018   */\n      add\n        /* \"#utility.yul\":972:1018   */\n      swap2\n      pop\n        /* \"#utility.yul\":739:1024   */\n      pop\n        /* \"#utility.yul\":647:1024   */\n      swap3\n      swap2\n      pop\n      pop\n      jump\t// out\n        /* \"#utility.yul\":1030:1343   */\n    tag_10:\n        /* \"#utility.yul\":1143:1147   */\n      0x00\n        /* \"#utility.yul\":1181:1183   */\n      0x20\n        /* \"#utility.yul\":1170:1179   */\n      dup3\n        /* \"#utility.yul\":1166:1184   */\n      add\n        /* \"#utility.yul\":1158:1184   */\n      swap1\n      pop\n        /* \"#utility.yul\":1230:1239   */\n      dup2\n        /* \"#utility.yul\":1224:1228   */\n      dup2\n        /* \"#utility.yul\":1220:1240   */\n      sub\n        /* \"#utility.yul\":1216:1217   */\n      0x00\n        /* \"#utility.yul\":1205:1214   */\n      dup4\n        /* \"#utility.yul\":1201:1218   */\n      add\n        /* \"#utility.yul\":1194:1241   */\n      mstore\n        /* \"#utility.yul\":1258:1336   */\n      tag_84\n        /* \"#utility.yul\":1331:1335   */\n      dup2\n        /* \"#utility.yul\":1322:1328   */\n      dup5\n        /* \"#utility.yul\":1258:1336   */\n      tag_46\n      jump\t// in\n    tag_84:\n        /* \"#utility.yul\":1250:1336   */\n      swap1\n      pop\n        /* \"#utility.yul\":1030:1343   */\n      swap3\n      swap2\n      pop\n      pop\n      jump\t// out\n        /* \"#utility.yul\":1349:1475   */\n    tag_47:\n        /* \"#utility.yul\":1386:1393   */\n      0x00\n        /* \"#utility.yul\":1426:1468   */\n      0xffffffffffffffffffffffffffffffffffffffff\n        /* \"#utility.yul\":1419:1424   */\n      dup3\n        /* \"#utility.yul\":1415:1469   */\n      and\n        /* \"#utility.yul\":1404:1469   */\n      swap1\n      pop\n        /* \"#utility.yul\":1349:1475   */\n      swap2\n      swap1\n      pop\n      jump\t// out\n        /* \"#utility.yul\":1481:1577   */\n    tag_48:\n        /* \"#utility.yul\":1518:1525   */\n      0x00\n        /* \"#utility.yul\":1547:1571   */\n      tag_87\n        /* \"#utility.yul\":1565:1570   */\n      dup3\n        /* \"#utility.yul\":1547:1571   */\n      tag_47\n      jump\t// in\n    tag_87:\n        /* \"#utility.yul\":1536:1571   */\n      swap1\n      pop\n        /* \"#utility.yul\":1481:1577   */\n      swap2\n      swap1\n      pop\n      jump\t// out\n        /* \"#utility.yul\":1583:1701   */\n    tag_49:\n        /* \"#utility.yul\":1670:1694   */\n      tag_89\n        /* \"#utility.yul\":1688:1693   */\n      dup2\n        /* \"#utility.yul\":1670:1694   */\n      tag_48\n      jump\t// in\n    tag_89:\n        /* \"#utility.yul\":1665:1668   */\n      dup3\n        /* \"#utility.yul\":1658:1695   */\n      mstore\n        /* \"#utility.yul\":1583:1701   */\n      pop\n      pop\n      jump\t// out\n        /* \"#utility.yul\":1707:1929   */\n    tag_14:\n        /* \"#utility.yul\":1800:1804   */\n      0x00\n        /* \"#utility.yul\":1838:1840   */\n      0x20\n        /* \"#utility.yul\":1827:1836   */\n      dup3\n        /* \"#utility.yul\":1823:1841   */\n      add\n        /* \"#utility.yul\":1815:1841   */\n      swap1\n      pop\n        /* \"#utility.yul\":1851:1922   */\n      tag_91\n        /* \"#utility.yul\":1919:1920   */\n      0x00\n        /* \"#utility.yul\":1908:1917   */\n      dup4\n        /* \"#utility.yul\":1904:1921   */\n      add\n        /* \"#utility.yul\":1895:1901   */\n      dup5\n        /* \"#utility.yul\":1851:1922   */\n      tag_49\n      jump\t// in\n    tag_91:\n        /* \"#utility.yul\":1707:1929   */\n      swap3\n      swap2\n      pop\n      pop\n      jump\t// out\n        /* \"#utility.yul\":1935:2025   */\n    tag_50:\n        /* \"#utility.yul\":1969:1976   */\n      0x00\n        /* \"#utility.yul\":2012:2017   */\n      dup2\n        /* \"#utility.yul\":2005:2018   */\n      iszero\n        /* \"#utility.yul\":1998:2019   */\n      iszero\n        /* \"#utility.yul\":1987:2019   */\n      swap1\n      pop\n        /* \"#utility.yul\":1935:2025   */\n      swap2\n      swap1\n      pop\n      jump\t// out\n        /* \"#utility.yul\":2031:2140   */\n    tag_51:\n        /* \"#utility.yul\":2112:2133   */\n      tag_94\n        /* \"#utility.yul\":2127:2132   */\n      dup2\n        /* \"#utility.yul\":2112:2133   */\n      tag_50\n      jump\t// in\n    tag_94:\n        /* \"#utility.yul\":2107:2110   */\n      dup3\n        /* \"#utility.yul\":2100:2134   */\n      mstore\n        /* \"#utility.yul\":2031:2140   */\n      pop\n      pop\n      jump\t// out\n        /* \"#utility.yul\":2146:2356   */\n    tag_18:\n        /* \"#utility.yul\":2233:2237   */\n      0x00\n        /* \"#utility.yul\":2271:2273   */\n      0x20\n        /* \"#utility.yul\":2260:2269   */\n      dup3\n        /* \"#utility.yul\":2256:2274   */\n      add\n        /* \"#utility.yul\":2248:2274   */\n      swap1\n      pop\n        /* \"#utility.yul\":2284:2349   */\n      tag_96\n        /* \"#utility.yul\":2346:2347   */\n      0x00\n        /* \"#utility.yul\":2335:2344   */\n      dup4\n        /* \"#utility.yul\":2331:2348   */\n      add\n        /* \"#utility.yul\":2322:2328   */\n      dup5\n        /* \"#utility.yul\":2284:2349   */\n      tag_51\n      jump\t// in\n    tag_96:\n        /* \"#utility.yul\":2146:2356   */\n      swap3\n      swap2\n      pop\n      pop\n      jump\t// out\n        /* \"#utility.yul\":2362:2542   */\n    tag_52:\n        /* \"#utility.yul\":2410:2487   */\n      0x4e487b7100000000000000000000000000000000000000000000000000000000\n        /* \"#utility.yul\":2407:2408   */\n      0x00\n        /* \"#utility.yul\":2400:2488   */\n      mstore\n        /* \"#utility.yul\":2507:2511   */\n      0x41\n        /* \"#utility.yul\":2504:2505   */\n      0x04\n        /* \"#utility.yul\":2497:2512   */\n      mstore\n        /* \"#utility.yul\":2531:2535   */\n      0x24\n        /* \"#utility.yul\":2528:2529   */\n      0x00\n        /* \"#utility.yul\":2521:2536   */\n      revert\n        /* \"#utility.yul\":2548:2728   */\n    tag_53:\n        /* \"#utility.yul\":2596:2673   */\n      0x4e487b7100000000000000000000000000000000000000000000000000000000\n        /* \"#utility.yul\":2593:2594   */\n      0x00\n        /* \"#utility.yul\":2586:2674   */\n      mstore\n        /* \"#utility.yul\":2693:2697   */\n      0x22\n        /* \"#utility.yul\":2690:2691   */\n      0x04\n        /* \"#utility.yul\":2683:2698   */\n      mstore\n        /* \"#utility.yul\":2717:2721   */\n      0x24\n        /* \"#utility.yul\":2714:2715   */\n      0x00\n        /* \"#utility.yul\":2707:2722   */\n      revert\n        /* \"#utility.yul\":2734:3054   */\n    tag_26:\n        /* \"#utility.yul\":2778:2784   */\n      0x00\n        /* \"#utility.yul\":2815:2816   */\n      0x02\n        /* \"#utility.yul\":2809:2813   */\n      dup3\n        /* \"#utility.yul\":2805:2817   */\n      div\n        /* \"#utility.yul\":2795:2817   */\n      swap1\n      pop\n        /* \"#utility.yul\":2862:2863   */\n      0x01\n        /* \"#utility.yul\":2856:2860   */\n      dup3\n        /* \"#utility.yul\":2852:2864   */\n      and\n        /* \"#utility.yul\":2883:2901   */\n      dup1\n        /* \"#utility.yul\":2873:2954   */\n      tag_100\n      jumpi\n        /* \"#utility.yul\":2939:2943   */\n      0x7f\n        /* \"#utility.yul\":2931:2937   */\n      dup3\n        /* \"#utility.yul\":2927:2944   */\n      and\n        /* \"#utility.yul\":2917:2944   */\n      swap2\n      pop\n        /* \"#utility.yul\":2873:2954   */\n    tag_100:\n        /* \"#utility.yul\":3001:3003   */\n      0x20\n        /* \"#utility.yul\":2993:2999   */\n      dup3\n        /* \"#utility.yul\":2990:3004   */\n      lt\n        /* \"#utility.yul\":2970:2988   */\n      dup2\n        /* \"#utility.yul\":2967:3005   */\n      sub\n        /* \"#utility.yul\":2964:3048   */\n      tag_101\n      jumpi\n        /* \"#utility.yul\":3020:3038   */\n      tag_102\n      tag_53\n      jump\t// in\n    tag_102:\n        /* \"#utility.yul\":2964:3048   */\n    tag_101:\n        /* \"#utility.yul\":2785:3054   */\n      pop\n        /* \"#utility.yul\":2734:3054   */\n      swap2\n      swap1\n      pop\n      jump\t// out\n        /* \"#utility.yul\":3060:3201   */\n    tag_54:\n        /* \"#utility.yul\":3109:3113   */\n      0x00\n        /* \"#utility.yul\":3132:3135   */\n      dup2\n        /* \"#utility.yul\":3124:3135   */\n      swap1\n      pop\n        /* \"#utility.yul\":3155:3158   */\n      dup2\n        /* \"#utility.yul\":3152:3153   */\n      0x00\n        /* \"#utility.yul\":3145:3159   */\n      mstore\n        /* \"#utility.yul\":3189:3193   */\n      0x20\n        /* \"#utility.yul\":3186:3187   */\n      0x00\n        /* \"#utility.yul\":3176:3194   */\n      keccak256\n        /* \"#utility.yul\":3168:3194   */\n      swap1\n      pop\n        /* \"#utility.yul\":3060:3201   */\n      swap2\n      swap1\n      pop\n      jump\t// out\n        /* \"#utility.yul\":3207:3300   */\n    tag_55:\n        /* \"#utility.yul\":3244:3250   */\n      0x00\n        /* \"#utility.yul\":3291:3293   */\n      0x20\n        /* \"#utility.yul\":3286:3288   */\n      0x1f\n        /* \"#utility.yul\":3279:3284   */\n      dup4\n        /* \"#utility.yul\":3275:3289   */\n      add\n        /* \"#utility.yul\":3271:3294   */\n      div\n        /* \"#utility.yul\":3261:3294   */\n      swap1\n      pop\n        /* \"#utility.yul\":3207:3300   */\n      swap2\n      swap1\n      pop\n      jump\t// out\n        /* \"#utility.yul\":3306:3413   */\n    tag_56:\n        /* \"#utility.yul\":3350:3358   */\n      0x00\n        /* \"#utility.yul\":3400:3405   */\n      dup3\n        /* \"#utility.yul\":3394:3398   */\n      dup3\n        /* \"#utility.yul\":3390:3406   */\n      shl\n        /* \"#utility.yul\":3369:3406   */\n      swap1\n      pop\n        /* \"#utility.yul\":3306:3413   */\n      swap3\n      swap2\n      pop\n      pop\n      jump\t// out\n        /* \"#utility.yul\":3419:3812   */\n    tag_57:\n        /* \"#utility.yul\":3488:3494   */\n      0x00\n        /* \"#utility.yul\":3538:3539   */\n      0x08\n        /* \"#utility.yul\":3526:3536   */\n      dup4\n        /* \"#utility.yul\":3522:3540   */\n      mul\n        /* \"#utility.yul\":3561:3658   */\n      tag_107\n        /* \"#utility.yul\":3591:3657   */\n      0xffffffffffffffffffffffffffffffffffffffffffffffffffffffffffffffff\n        /* \"#utility.yul\":3580:3589   */\n      dup3\n        /* \"#utility.yul\":3561:3658   */\n      tag_56\n      jump\t// in\n    tag_107:\n        /* \"#utility.yul\":3679:3718   */\n      tag_108\n        /* \"#utility.yul\":3709:3717   */\n      dup7\n        /* \"#utility.yul\":3698:3707   */\n      dup4\n        /* \"#utility.yul\":3679:3718   */\n      tag_56\n      jump\t// in\n    tag_108:\n        /* \"#utility.yul\":3667:3718   */\n      swap6\n      pop\n        /* \"#utility.yul\":3751:3755   */\n      dup1\n        /* \"#utility.yul\":3747:3756   */\n      not\n        /* \"#utility.yul\":3740:3745   */\n      dup5\n        /* \"#utility.yul\":3736:3757   */\n      and\n        /* \"#utility.yul\":3727:3757   */\n      swap4\n      pop\n        /* \"#utility.yul\":3800:3804   */\n      dup1\n        /* \"#utility.yul\":3790:3798   */\n      dup7\n        /* \"#utility.yul\":3786:3805   */\n      and\n        /* \"#utility.yul\":3779:3784   */\n      dup5\n        /* \"#utility.yul\":3776:3806   */\n      or\n        /* \"#utility.yul\":3766:3806   */\n      swap3\n      pop\n        /* \"#utility.yul\":3495:3812   */\n      pop\n      pop\n        /* \"#utility.yul\":3419:3812   */\n      swap4\n      swap3\n      pop\n      pop\n      pop\n      jump\t// out\n        /* \"#utility.yul\":3818:3895   */\n    tag_58:\n        /* \"#utility.yul\":3855:3862   */\n      0x00\n        /* \"#utility.yul\":3884:3889   */\n      dup2\n        /* \"#utility.yul\":3873:3889   */\n      swap1\n      pop\n        /* \"#utility.yul\":3818:3895   */\n      swap2\n      swap1\n      pop\n      jump\t// out\n        /* \"#utility.yul\":3901:3961   */\n    tag_59:\n        /* \"#utility.yul\":3929:3932   */\n      0x00\n        /* \"#utility.yul\":3950:3955   */\n      dup2\n        /* \"#utility.yul\":3943:3955   */\n      swap1\n      pop\n        /* \"#utility.yul\":3901:3961   */\n      swap2\n      swap1\n      pop\n      jump\t// out\n        /* \"#utility.yul\":3967:4109   */\n    tag_60:\n        /* \"#utility.yul\":4017:4026   */\n      0x00\n        /* \"#utility.yul\":4050:4103   */\n      tag_112\n        /* \"#utility.yul\":4068:4102   */\n      tag_113\n        /* \"#utility.yul\":4077:4101   */\n      tag_114\n        /* \"#utility.yul\":4095:4100   */\n      dup5\n        /* \"#utility.yul\":4077:4101   */\n      tag_58\n      jump\t// in\n    tag_114:\n        /* \"#utility.yul\":4068:4102   */\n      tag_59\n      jump\t// in\n    tag_113:\n        /* \"#utility.yul\":4050:4103   */\n      tag_58\n      jump\t// in\n    tag_112:\n        /* \"#utility.yul\":4037:4103   */\n      swap1\n      pop\n        /* \"#utility.yul\":3967:4109   */\n      swap2\n      swap1\n      pop\n      jump\t// out\n        /* \"#utility.yul\":4115:4190   */\n    tag_61:\n        /* \"#utility.yul\":4158:4161   */\n      0x00\n        /* \"#utility.yul\":4179:4184   */\n      dup2\n        /* \"#utility.yul\":4172:4184   */\n      swap1\n      pop\n        /* \"#utility.yul\":4115:4190   */\n      swap2\n      swap1\n      pop\n      jump\t// out\n        /* \"#utility.yul\":4196:4465   */\n    tag_62:\n        /* \"#utility.yul\":4306:4345   */\n      tag_117\n        /* \"#utility.yul\":4337:4344   */\n      dup4\n        /* \"#utility.yul\":4306:4345   */\n      tag_60\n      jump\t// in\n    tag_117:\n        /* \"#utility.yul\":4367:4458   */\n      tag_118\n        /* \"#utility.yul\":4416:4457   */\n      tag_119\n        /* \"#utility.yul\":4440:4456   */\n      dup3\n        /* \"#utility.yul\":4416:4457   */\n      tag_61\n      jump\t// in\n    tag_119:\n        /* \"#utility.yul\":4408:4414   */\n      dup5\n        /* \"#utility.yul\":4401:4405   */\n      dup5\n        /* \"#utility.yul\":4395:4406   */\n      sload\n        /* \"#utility.yul\":4367:4458   */\n      tag_57\n      jump\t// in\n    tag_118:\n        /* \"#utility.yul\":4361:4365   */\n      dup3\n        /* \"#utility.yul\":4354:4459   */\n      sstore\n        /* \"#utility.yul\":4272:4465   */\n      pop\n        /* \"#utility.yul\":4196:4465   */\n      pop\n      pop\n      pop\n      jump\t// out\n        /* \"#utility.yul\":4471:4544   */\n    tag_63:\n        /* \"#utility.yul\":4516:4519   */\n      0x00\n        /* \"#utility.yul\":4471:4544   */\n      swap1\n      jump\t// out\n        /* \"#utility.yul\":4550:4739   */\n    tag_64:\n        /* \"#utility.yul\":4627:4659   */\n      tag_122\n      tag_63\n      jump\t// in\n    tag_122:\n        /* \"#utility.yul\":4668:4733   */\n      tag_123\n        /* \"#utility.yul\":4726:4732   */\n      dup2\n        /* \"#utility.yul\":4718:4724   */\n      dup5\n        /* \"#utility.yul\":4712:4716   */\n      dup5\n        /* \"#utility.yul\":4668:4733   */\n      tag_62\n      jump\t// in\n    tag_123:\n        /* \"#utility.yul\":4603:4739   */\n      pop\n        /* \"#utility.yul\":4550:4739   */\n      pop\n      pop\n      jump\t// out\n        /* \"#utility.yul\":4745:4931   */\n    tag_65:\n        /* \"#utility.yul\":4805:4925   */\n    tag_125:\n        /* \"#utility.yul\":4822:4825   */\n      dup2\n        /* \"#utility.yul\":4815:4820   */\n      dup2\n        /* \"#utility.yul\":4812:4826   */\n      lt\n        /* \"#utility.yul\":4805:4925   */\n      iszero\n      tag_127\n      jumpi\n        /* \"#utility.yul\":4876:4915   */\n      tag_128\n        /* \"#utility.yul\":4913:4914   */\n      0x00\n        /* \"#utility.yul\":4906:4911   */\n      dup3\n        /* \"#utility.yul\":4876:4915   */\n      tag_64\n      jump\t// in\n    tag_128:\n        /* \"#utility.yul\":4849:4850   */\n      0x01\n        /* \"#utility.yul\":4842:4847   */\n      dup2\n        /* \"#utility.yul\":4838:4851   */\n      add\n        /* \"#utility.yul\":4829:4851   */\n      swap1\n      pop\n        /* \"#utility.yul\":4805:4925   */\n      jump(tag_125)\n    tag_127:\n        /* \"#utility.yul\":4745:4931   */\n      pop\n      pop\n      jump\t// out\n        /* \"#utility.yul\":4937:5480   */\n    tag_66:\n        /* \"#utility.yul\":5038:5040   */\n      0x1f\n        /* \"#utility.yul\":5033:5036   */\n      dup3\n        /* \"#utility.yul\":5030:5041   */\n      gt\n        /* \"#utility.yul\":5027:5473   */\n      iszero\n      tag_130\n      jumpi\n        /* \"#utility.yul\":5072:5110   */\n      tag_131\n        /* \"#utility.yul\":5104:5109   */\n      dup2\n        /* \"#utility.yul\":5072:5110   */\n      tag_54\n      jump\t// in\n    tag_131:\n        /* \"#utility.yul\":5156:5185   */\n      tag_132\n        /* \"#utility.yul\":5174:5184   */\n      dup5\n        /* \"#utility.yul\":5156:5185   */\n      tag_55\n      jump\t// in\n    tag_132:\n        /* \"#utility.yul\":5146:5154   */\n      dup2\n        /* \"#utility.yul\":5142:5186   */\n      add\n        /* \"#utility.yul\":5339:5341   */\n      0x20\n        /* \"#utility.yul\":5327:5337   */\n      dup6\n        /* \"#utility.yul\":5324:5342   */\n      lt\n        /* \"#utility.yul\":5321:5370   */\n      iszero\n      tag_133\n      jumpi\n        /* \"#utility.yul\":5360:5368   */\n      dup2\n        /* \"#utility.yul\":5345:5368   */\n      swap1\n      pop\n        /* \"#utility.yul\":5321:5370   */\n    tag_133:\n        /* \"#utility.yul\":5383:5463   */\n      tag_134\n        /* \"#utility.yul\":5439:5461   */\n      tag_135\n        /* \"#utility.yul\":5457:5460   */\n      dup6\n        /* \"#utility.yul\":5439:5461   */\n      tag_55\n      jump\t// in\n    tag_135:\n        /* \"#utility.yul\":5429:5437   */\n      dup4\n        /* \"#utility.yul\":5425:5462   */\n      add\n        /* \"#utility.yul\":5412:5423   */\n      dup3\n        /* \"#utility.yul\":5383:5463   */\n      tag_65\n      jump\t// in\n    tag_134:\n        /* \"#utility.yul\":5042:5473   */\n      pop\n      pop\n        /* \"#utility.yul\":5027:5473   */\n    tag_130:\n        /* \"#utility.yul\":4937:5480   */\n      pop\n      pop\n      pop\n      jump\t// out\n        /* \"#utility.yul\":5486:5603   */\n    tag_67:\n        /* \"#utility.yul\":5540:5548   */\n      0x00\n        /* \"#utility.yul\":5590:5595   */\n      dup3\n        /* \"#utility.yul\":5584:5588   */\n      dup3\n        /* \"#utility.yul\":5580:5596   */\n      shr\n        /* \"#utility.yul\":5559:5596   */\n      swap1\n      pop\n        /* \"#utility.yul\":5486:5603   */\n      swap3\n      swap2\n      pop\n      pop\n      jump\t// out\n        /* \"#utility.yul\":5609:5778   */\n    tag_68:\n        /* \"#utility.yul\":5653:5659   */\n      0x00\n        /* \"#utility.yul\":5686:5737   */\n      tag_138\n        /* \"#utility.yul\":5734:5735   */\n      0x00\n        /* \"#utility.yul\":5730:5736   */\n      not\n        /* \"#utility.yul\":5722:5727   */\n      dup5\n        /* \"#utility.yul\":5719:5720   */\n      0x08\n        /* \"#utility.yul\":5715:5728   */\n      mul\n        /* \"#utility.yul\":5686:5737   */\n      tag_67\n      jump\t// in\n    tag_138:\n        /* \"#utility.yul\":5682:5738   */\n      not\n        /* \"#utility.yul\":5767:5771   */\n      dup1\n        /* \"#utility.yul\":5761:5765   */\n      dup4\n        /* \"#utility.yul\":5757:5772   */\n      and\n        /* \"#utility.yul\":5747:5772   */\n      swap2\n      pop\n        /* \"#utility.yul\":5660:5778   */\n      pop\n        /* \"#utility.yul\":5609:5778   */\n      swap3\n      swap2\n      pop\n      pop\n      jump\t// out\n        /* \"#utility.yul\":5783:6078   */\n    tag_69:\n        /* \"#utility.yul\":5859:5863   */\n      0x00\n        /* \"#utility.yul\":6005:6034   */\n      tag_140\n        /* \"#utility.yul\":6030:6033   */\n      dup4\n        /* \"#utility.yul\":6024:6028   */\n      dup4\n        /* \"#utility.yul\":6005:6034   */\n      tag_68\n      jump\t// in\n    tag_140:\n        /* \"#utility.yul\":5997:6034   */\n      swap2\n      pop\n        /* \"#utility.yul\":6067:6070   */\n      dup3\n        /* \"#utility.yul\":6064:6065   */\n      0x02\n        /* \"#utility.yul\":6060:6071   */\n      mul\n        /* \"#utility.yul\":6054:6058   */\n      dup3\n        /* \"#utility.yul\":6051:6072   */\n      or\n        /* \"#utility.yul\":6043:6072   */\n      swap1\n      pop\n        /* \"#utility.yul\":5783:6078   */\n      swap3\n      swap2\n      pop\n      pop\n      jump\t// out\n        /* \"#utility.yul\":6083:7478   */\n    tag_24:\n        /* \"#utility.yul\":6200:6237   */\n      tag_142\n        /* \"#utility.yul\":6233:6236   */\n      dup3\n        /* \"#utility.yul\":6200:6237   */\n      tag_42\n      jump\t// in\n    tag_142:\n        /* \"#utility.yul\":6302:6320   */\n      0xffffffffffffffff\n        /* \"#utility.yul\":6294:6300   */\n      dup2\n        /* \"#utility.yul\":6291:6321   */\n      gt\n        /* \"#utility.yul\":6288:6344   */\n      iszero\n      tag_143\n      jumpi\n        /* \"#utility.yul\":6324:6342   */\n      tag_144\n      tag_52\n      jump\t// in\n    tag_144:\n        /* \"#utility.yul\":6288:6344   */\n    tag_143:\n        /* \"#utility.yul\":6368:6406   */\n      tag_145\n        /* \"#utility.yul\":6400:6404   */\n      dup3\n        /* \"#utility.yul\":6394:6405   */\n      sload\n        /* \"#utility.yul\":6368:6406   */\n      tag_26\n      jump\t// in\n    tag_145:\n        /* \"#utility.yul\":6453:6520   */\n      tag_146\n        /* \"#utility.yul\":6513:6519   */\n      dup3\n        /* \"#utility.yul\":6505:6511   */\n      dup3\n        /* \"#utility.yul\":6499:6503   */\n      dup6\n        /* \"#utility.yul\":6453:6520   */\n      tag_66\n      jump\t// in\n    tag_146:\n        /* \"#utility.yul\":6547:6548   */\n      0x00\n        /* \"#utility.yul\":6571:6575   */\n      0x20\n        /* \"#utility.yul\":6558:6575   */\n      swap1\n      pop\n        /* \"#utility.yul\":6603:6605   */\n      0x1f\n        /* \"#utility.yul\":6595:6601   */\n      dup4\n        /* \"#utility.yul\":6592:6606   */\n      gt\n        /* \"#utility.yul\":6620:6621   */\n      0x01\n        /* \"#utility.yul\":6615:7233   */\n      dup2\n      eq\n      tag_148\n      jumpi\n        /* \"#utility.yul\":7277:7278   */\n      0x00\n        /* \"#utility.yul\":7294:7300   */\n      dup5\n        /* \"#utility.yul\":7291:7368   */\n      iszero\n      tag_149\n      jumpi\n        /* \"#utility.yul\":7343:7352   */\n      dup3\n        /* \"#utility.yul\":7338:7341   */\n      dup8\n        /* \"#utility.yul\":7334:7353   */\n      add\n        /* \"#utility.yul\":7328:7354   */\n      mload\n        /* \"#utility.yul\":7319:7354   */\n      swap1\n      pop\n        /* \"#utility.yul\":7291:7368   */\n    tag_149:\n        /* \"#utility.yul\":7394:7461   */\n      tag_150\n        /* \"#utility.yul\":7454:7460   */\n      dup6\n        /* \"#utility.yul\":7447:7452   */\n      dup3\n        /* \"#utility.yul\":7394:7461   */\n      tag_69\n      jump\t// in\n    tag_150:\n        /* \"#utility.yul\":7388:7392   */\n      dup7\n        /* \"#utility.yul\":7381:7462   */\n      sstore\n        /* \"#utility.yul\":7250:7472   */\n      pop\n        /* \"#utility.yul\":6585:7472   */\n      jump(tag_147)\n        /* \"#utility.yul\":6615:7233   */\n    tag_148:\n        /* \"#utility.yul\":6667:6671   */\n      0x1f\n        /* \"#utility.yul\":6663:6672   */\n      not\n        /* \"#utility.yul\":6655:6661   */\n      dup5\n        /* \"#utility.yul\":6651:6673   */\n      and\n        /* \"#utility.yul\":6701:6738   */\n      tag_151\n        /* \"#utility.yul\":6733:6737   */\n      dup7\n        /* \"#utility.yul\":6701:6738   */\n      tag_54\n      jump\t// in\n    tag_151:\n        /* \"#utility.yul\":6760:6761   */\n      0x00\n        /* \"#utility.yul\":6774:6982   */\n    tag_152:\n        /* \"#utility.yul\":6788:6795   */\n      dup3\n        /* \"#utility.yul\":6785:6786   */\n      dup2\n        /* \"#utility.yul\":6782:6796   */\n      lt\n        /* \"#utility.yul\":6774:6982   */\n      iszero\n      tag_154\n      jumpi\n        /* \"#utility.yul\":6867:6876   */\n      dup5\n        /* \"#utility.yul\":6862:6865   */\n      dup10\n        /* \"#utility.yul\":6858:6877   */\n      add\n        /* \"#utility.yul\":6852:6878   */\n      mload\n        /* \"#utility.yul\":6844:6850   */\n      dup3\n        /* \"#utility.yul\":6837:6879   */\n      sstore\n        /* \"#utility.yul\":6918:6919   */\n      0x01\n        /* \"#utility.yul\":6910:6916   */\n      dup3\n        /* \"#utility.yul\":6906:6920   */\n      add\n        /* \"#utility.yul\":6896:6920   */\n      swap2\n      pop\n        /* \"#utility.yul\":6965:6967   */\n      0x20\n        /* \"#utility.yul\":6954:6963   */\n      dup6\n        /* \"#utility.yul\":6950:6968   */\n      add\n        /* \"#utility.yul\":6937:6968   */\n      swap5\n      pop\n        /* \"#utility.yul\":6811:6815   */\n      0x20\n        /* \"#utility.yul\":6808:6809   */\n      dup2\n        /* \"#utility.yul\":6804:6816   */\n      add\n        /* \"#utility.yul\":6799:6816   */\n      swap1\n      pop\n        /* \"#utility.yul\":6774:6982   */\n      jump(tag_152)\n    tag_154:\n        /* \"#utility.yul\":7010:7016   */\n      dup7\n        /* \"#utility.yul\":7001:7008   */\n      dup4\n        /* \"#utility.yul\":6998:7017   */\n      lt\n        /* \"#utility.yul\":6995:7174   */\n      iszero\n      tag_155\n      jumpi\n        /* \"#utility.yul\":7068:7077   */\n      dup5\n        /* \"#utility.yul\":7063:7066   */\n      dup10\n        /* \"#utility.yul\":7059:7078   */\n      add\n        /* \"#utility.yul\":7053:7079   */\n      mload\n        /* \"#utility.yul\":7111:7159   */\n      tag_156\n        /* \"#utility.yul\":7153:7157   */\n      0x1f\n        /* \"#utility.yul\":7145:7151   */\n      dup10\n        /* \"#utility.yul\":7141:7158   */\n      and\n        /* \"#utility.yul\":7130:7139   */\n      dup3\n        /* \"#utility.yul\":7111:7159   */\n      tag_68\n      jump\t// in\n    tag_156:\n        /* \"#utility.yul\":7103:7109   */\n      dup4\n        /* \"#utility.yul\":7096:7160   */\n      sstore\n        /* \"#utility.yul\":7018:7174   */\n      pop\n        /* \"#utility.yul\":6995:7174   */\n    tag_155:\n        /* \"#utility.yul\":7220:7221   */\n      0x01\n        /* \"#utility.yul\":7216:7217   */\n      0x02\n        /* \"#utility.yul\":7208:7214   */\n      dup9\n        /* \"#utility.yul\":7204:7218   */\n      mul\n        /* \"#utility.yul\":7200:7222   */\n      add\n        /* \"#utility.yul\":7194:7198   */\n      dup9\n        /* \"#utility.yul\":7187:7223   */\n      sstore\n        /* \"#utility.yul\":6622:7233   */\n      pop\n      pop\n      pop\n        /* \"#utility.yul\":6585:7472   */\n    tag_147:\n      pop\n        /* \"#utility.yul\":6175:7478   */\n      pop\n      pop\n      pop\n        /* \"#utility.yul\":6083:7478   */\n      pop\n      pop\n      jump\t// out\n    stop\n    data_f91d9f9c30b87de79ab80c9dbd989ea2ab1495f54673668222810b101f52ceb2 6572726f72202d20696e7375667166696369656e74207065726d697373696f6e73\n\n    auxdata: 0xa264697066735822122007f01b121ccb9c13cae38c0c066eb3a89963c55e4da9df5ca0ba3e886206e4fa64736f6c63430008120033\n}\n",
				"bytecode": {
					"linkReferences": {},
					"object": "608060405234801561001057600080fd5b50336000806101000a81548173ffffffffffffffffffffffffffffffffffffffff021916908373ffffffffffffffffffffffffffffffffffffffff160217905550610745806100606000396000f3fe608060405234801561001057600080fd5b506004361061004c5760003560e01c80633096a04f1461005157806342948e181461006f578063b6db75a01461008d578063e21f37ce146100ab575b600080fd5b6100596100c9565b6040516100669190610323565b60405180910390f35b610077610183565b6040516100849190610386565b60405180910390f35b61009561019e565b6040516100a291906103bc565b60405180910390f35b6100b3610205565b6040516100c09190610323565b60405180910390f35b60606040518060600160405280602181526020016106ef60219139600190816100f2919061061c565b506001805461010090610435565b80601f016020809104026020016040519081016040528092919081815260200182805461012c90610435565b80156101795780601f1061014e57610100808354040283529160200191610179565b820191906000526020600020905b81548152906001019060200180831161015c57829003601f168201915b5050505050905090565b600061018d61019e565b1561019a5733905061019b565b5b90565b60008060009054906101000a900473ffffffffffffffffffffffffffffffffffffffff1673ffffffffffffffffffffffffffffffffffffffff163373ffffffffffffffffffffffffffffffffffffffff16036101fd5760019050610202565b600090505b90565b6001805461021290610435565b80601f016020809104026020016040519081016040528092919081815260200182805461023e90610435565b801561028b5780601f106102605761010080835404028352916020019161028b565b820191906000526020600020905b81548152906001019060200180831161026e57829003601f168201915b505050505081565b600081519050919050565b600082825260208201905092915050565b60005b838110156102cd5780820151818401526020810190506102b2565b60008484015250505050565b6000601f19601f8301169050919050565b60006102f582610293565b6102ff818561029e565b935061030f8185602086016102af565b610318816102d9565b840191505092915050565b6000602082019050818103600083015261033d81846102ea565b905092915050565b600073ffffffffffffffffffffffffffffffffffffffff82169050919050565b600061037082610345565b9050919050565b61038081610365565b82525050565b600060208201905061039b6000830184610377565b92915050565b60008115159050919050565b6103b6816103a1565b82525050565b60006020820190506103d160008301846103ad565b92915050565b7f4e487b7100000000000000000000000000000000000000000000000000000000600052604160045260246000fd5b7f4e487b7100000000000000000000000000000000000000000000000000000000600052602260045260246000fd5b6000600282049050600182168061044d57607f821691505b6020821081036104605761045f610406565b5b50919050565b60008190508160005260206000209050919050565b60006020601f8301049050919050565b600082821b905092915050565b6000600883026104c87fffffffffffffffffffffffffffffffffffffffffffffffffffffffffffffffff8261048b565b6104d2868361048b565b95508019841693508086168417925050509392505050565b6000819050919050565b6000819050919050565b600061051961051461050f846104ea565b6104f4565b6104ea565b9050919050565b6000819050919050565b610533836104fe565b61054761053f82610520565b848454610498565b825550505050565b600090565b61055c61054f565b61056781848461052a565b505050565b5b8181101561058b57610580600082610554565b60018101905061056d565b5050565b601f8211156105d0576105a181610466565b6105aa8461047b565b810160208510156105b9578190505b6105cd6105c58561047b565b83018261056c565b50505b505050565b600082821c905092915050565b60006105f3600019846008026105d5565b1980831691505092915050565b600061060c83836105e2565b9150826002028217905092915050565b61062582610293565b67ffffffffffffffff81111561063e5761063d6103d7565b5b6106488254610435565b61065382828561058f565b600060209050601f8311600181146106865760008415610674578287015190505b61067e8582610600565b8655506106e6565b601f19841661069486610466565b60005b828110156106bc57848901518255600182019150602085019450602081019050610697565b868310156106d957848901516106d5601f8916826105e2565b8355505b6001600288020188555050505b50505050505056fe6572726f72202d20696e7375667166696369656e74207065726d697373696f6e73a264697066735822122007f01b121ccb9c13cae38c0c066eb3a89963c55e4da9df5ca0ba3e886206e4fa64736f6c63430008120033",
					"opcodes": "PUSH1 0x80 PUSH1 0x40 MSTORE CALLVALUE DUP1 ISZERO PUSH2 0x10 JUMPI PUSH1 0x0 DUP1 REVERT JUMPDEST POP CALLER PUSH1 0x0 DUP1 PUSH2 0x100 EXP DUP2 SLOAD DUP2 PUSH20 0xFFFFFFFFFFFFFFFFFFFFFFFFFFFFFFFFFFFFFFFF MUL NOT AND SWAP1 DUP4 PUSH20 0xFFFFFFFFFFFFFFFFFFFFFFFFFFFFFFFFFFFFFFFF AND MUL OR SWAP1 SSTORE POP PUSH2 0x745 DUP1 PUSH2 0x60 PUSH1 0x0 CODECOPY PUSH1 0x0 RETURN INVALID PUSH1 0x80 PUSH1 0x40 MSTORE CALLVALUE DUP1 ISZERO PUSH2 0x10 JUMPI PUSH1 0x0 DUP1 REVERT JUMPDEST POP PUSH1 0x4 CALLDATASIZE LT PUSH2 0x4C JUMPI PUSH1 0x0 CALLDATALOAD PUSH1 0xE0 SHR DUP1 PUSH4 0x3096A04F EQ PUSH2 0x51 JUMPI DUP1 PUSH4 0x42948E18 EQ PUSH2 0x6F JUMPI DUP1 PUSH4 0xB6DB75A0 EQ PUSH2 0x8D JUMPI DUP1 PUSH4 0xE21F37CE EQ PUSH2 0xAB JUMPI JUMPDEST PUSH1 0x0 DUP1 REVERT JUMPDEST PUSH2 0x59 PUSH2 0xC9 JUMP JUMPDEST PUSH1 0x40 MLOAD PUSH2 0x66 SWAP2 SWAP1 PUSH2 0x323 JUMP JUMPDEST PUSH1 0x40 MLOAD DUP1 SWAP2 SUB SWAP1 RETURN JUMPDEST PUSH2 0x77 PUSH2 0x183 JUMP JUMPDEST PUSH1 0x40 MLOAD PUSH2 0x84 SWAP2 SWAP1 PUSH2 0x386 JUMP JUMPDEST PUSH1 0x40 MLOAD DUP1 SWAP2 SUB SWAP1 RETURN JUMPDEST PUSH2 0x95 PUSH2 0x19E JUMP JUMPDEST PUSH1 0x40 MLOAD PUSH2 0xA2 SWAP2 SWAP1 PUSH2 0x3BC JUMP JUMPDEST PUSH1 0x40 MLOAD DUP1 SWAP2 SUB SWAP1 RETURN JUMPDEST PUSH2 0xB3 PUSH2 0x205 JUMP JUMPDEST PUSH1 0x40 MLOAD PUSH2 0xC0 SWAP2 SWAP1 PUSH2 0x323 JUMP JUMPDEST PUSH1 0x40 MLOAD DUP1 SWAP2 SUB SWAP1 RETURN JUMPDEST PUSH1 0x60 PUSH1 0x40 MLOAD DUP1 PUSH1 0x60 ADD PUSH1 0x40 MSTORE DUP1 PUSH1 0x21 DUP2 MSTORE PUSH1 0x20 ADD PUSH2 0x6EF PUSH1 0x21 SWAP2 CODECOPY PUSH1 0x1 SWAP1 DUP2 PUSH2 0xF2 SWAP2 SWAP1 PUSH2 0x61C JUMP JUMPDEST POP PUSH1 0x1 DUP1 SLOAD PUSH2 0x100 SWAP1 PUSH2 0x435 JUMP JUMPDEST DUP1 PUSH1 0x1F ADD PUSH1 0x20 DUP1 SWAP2 DIV MUL PUSH1 0x20 ADD PUSH1 0x40 MLOAD SWAP1 DUP2 ADD PUSH1 0x40 MSTORE DUP1 SWAP3 SWAP2 SWAP1 DUP2 DUP2 MSTORE PUSH1 0x20 ADD DUP3 DUP1 SLOAD PUSH2 0x12C SWAP1 PUSH2 0x435 JUMP JUMPDEST DUP1 ISZERO PUSH2 0x179 JUMPI DUP1 PUSH1 0x1F LT PUSH2 0x14E JUMPI PUSH2 0x100 DUP1 DUP4 SLOAD DIV MUL DUP4 MSTORE SWAP2 PUSH1 0x20 ADD SWAP2 PUSH2 0x179 JUMP JUMPDEST DUP3 ADD SWAP2 SWAP1 PUSH1 0x0 MSTORE PUSH1 0x20 PUSH1 0x0 KECCAK256 SWAP1 JUMPDEST DUP2 SLOAD DUP2 MSTORE SWAP1 PUSH1 0x1 ADD SWAP1 PUSH1 0x20 ADD DUP1 DUP4 GT PUSH2 0x15C JUMPI DUP3 SWAP1 SUB PUSH1 0x1F AND DUP3 ADD SWAP2 JUMPDEST POP POP POP POP POP SWAP1 POP SWAP1 JUMP JUMPDEST PUSH1 0x0 PUSH2 0x18D PUSH2 0x19E JUMP JUMPDEST ISZERO PUSH2 0x19A JUMPI CALLER SWAP1 POP PUSH2 0x19B JUMP JUMPDEST JUMPDEST SWAP1 JUMP JUMPDEST PUSH1 0x0 DUP1 PUSH1 0x0 SWAP1 SLOAD SWAP1 PUSH2 0x100 EXP SWAP1 DIV PUSH20 0xFFFFFFFFFFFFFFFFFFFFFFFFFFFFFFFFFFFFFFFF AND PUSH20 0xFFFFFFFFFFFFFFFFFFFFFFFFFFFFFFFFFFFFFFFF AND CALLER PUSH20 0xFFFFFFFFFFFFFFFFFFFFFFFFFFFFFFFFFFFFFFFF AND SUB PUSH2 0x1FD JUMPI PUSH1 0x1 SWAP1 POP PUSH2 0x202 JUMP JUMPDEST PUSH1 0x0 SWAP1 POP JUMPDEST SWAP1 JUMP JUMPDEST PUSH1 0x1 DUP1 SLOAD PUSH2 0x212 SWAP1 PUSH2 0x435 JUMP JUMPDEST DUP1 PUSH1 0x1F ADD PUSH1 0x20 DUP1 SWAP2 DIV MUL PUSH1 0x20 ADD PUSH1 0x40 MLOAD SWAP1 DUP2 ADD PUSH1 0x40 MSTORE DUP1 SWAP3 SWAP2 SWAP1 DUP2 DUP2 MSTORE PUSH1 0x20 ADD DUP3 DUP1 SLOAD PUSH2 0x23E SWAP1 PUSH2 0x435 JUMP JUMPDEST DUP1 ISZERO PUSH2 0x28B JUMPI DUP1 PUSH1 0x1F LT PUSH2 0x260 JUMPI PUSH2 0x100 DUP1 DUP4 SLOAD DIV MUL DUP4 MSTORE SWAP2 PUSH1 0x20 ADD SWAP2 PUSH2 0x28B JUMP JUMPDEST DUP3 ADD SWAP2 SWAP1 PUSH1 0x0 MSTORE PUSH1 0x20 PUSH1 0x0 KECCAK256 SWAP1 JUMPDEST DUP2 SLOAD DUP2 MSTORE SWAP1 PUSH1 0x1 ADD SWAP1 PUSH1 0x20 ADD DUP1 DUP4 GT PUSH2 0x26E JUMPI DUP3 SWAP1 SUB PUSH1 0x1F AND DUP3 ADD SWAP2 JUMPDEST POP POP POP POP POP DUP2 JUMP JUMPDEST PUSH1 0x0 DUP2 MLOAD SWAP1 POP SWAP2 SWAP1 POP JUMP JUMPDEST PUSH1 0x0 DUP3 DUP3 MSTORE PUSH1 0x20 DUP3 ADD SWAP1 POP SWAP3 SWAP2 POP POP JUMP JUMPDEST PUSH1 0x0 JUMPDEST DUP4 DUP2 LT ISZERO PUSH2 0x2CD JUMPI DUP1 DUP3 ADD MLOAD DUP2 DUP5 ADD MSTORE PUSH1 0x20 DUP2 ADD SWAP1 POP PUSH2 0x2B2 JUMP JUMPDEST PUSH1 0x0 DUP5 DUP5 ADD MSTORE POP POP POP POP JUMP JUMPDEST PUSH1 0x0 PUSH1 0x1F NOT PUSH1 0x1F DUP4 ADD AND SWAP1 POP SWAP2 SWAP1 POP JUMP JUMPDEST PUSH1 0x0 PUSH2 0x2F5 DUP3 PUSH2 0x293 JUMP JUMPDEST PUSH2 0x2FF DUP2 DUP6 PUSH2 0x29E JUMP JUMPDEST SWAP4 POP PUSH2 0x30F DUP2 DUP6 PUSH1 0x20 DUP7 ADD PUSH2 0x2AF JUMP JUMPDEST PUSH2 0x318 DUP2 PUSH2 0x2D9 JUMP JUMPDEST DUP5 ADD SWAP2 POP POP SWAP3 SWAP2 POP POP JUMP JUMPDEST PUSH1 0x0 PUSH1 0x20 DUP3 ADD SWAP1 POP DUP2 DUP2 SUB PUSH1 0x0 DUP4 ADD MSTORE PUSH2 0x33D DUP2 DUP5 PUSH2 0x2EA JUMP JUMPDEST SWAP1 POP SWAP3 SWAP2 POP POP JUMP JUMPDEST PUSH1 0x0 PUSH20 0xFFFFFFFFFFFFFFFFFFFFFFFFFFFFFFFFFFFFFFFF DUP3 AND SWAP1 POP SWAP2 SWAP1 POP JUMP JUMPDEST PUSH1 0x0 PUSH2 0x370 DUP3 PUSH2 0x345 JUMP JUMPDEST SWAP1 POP SWAP2 SWAP1 POP JUMP JUMPDEST PUSH2 0x380 DUP2 PUSH2 0x365 JUMP JUMPDEST DUP3 MSTORE POP POP JUMP JUMPDEST PUSH1 0x0 PUSH1 0x20 DUP3 ADD SWAP1 POP PUSH2 0x39B PUSH1 0x0 DUP4 ADD DUP5 PUSH2 0x377 JUMP JUMPDEST SWAP3 SWAP2 POP POP JUMP JUMPDEST PUSH1 0x0 DUP2 ISZERO ISZERO SWAP1 POP SWAP2 SWAP1 POP JUMP JUMPDEST PUSH2 0x3B6 DUP2 PUSH2 0x3A1 JUMP JUMPDEST DUP3 MSTORE POP POP JUMP JUMPDEST PUSH1 0x0 PUSH1 0x20 DUP3 ADD SWAP1 POP PUSH2 0x3D1 PUSH1 0x0 DUP4 ADD DUP5 PUSH2 0x3AD JUMP JUMPDEST SWAP3 SWAP2 POP POP JUMP JUMPDEST PUSH32 0x4E487B7100000000000000000000000000000000000000000000000000000000 PUSH1 0x0 MSTORE PUSH1 0x41 PUSH1 0x4 MSTORE PUSH1 0x24 PUSH1 0x0 REVERT JUMPDEST PUSH32 0x4E487B7100000000000000000000000000000000000000000000000000000000 PUSH1 0x0 MSTORE PUSH1 0x22 PUSH1 0x4 MSTORE PUSH1 0x24 PUSH1 0x0 REVERT JUMPDEST PUSH1 0x0 PUSH1 0x2 DUP3 DIV SWAP1 POP PUSH1 0x1 DUP3 AND DUP1 PUSH2 0x44D JUMPI PUSH1 0x7F DUP3 AND SWAP2 POP JUMPDEST PUSH1 0x20 DUP3 LT DUP2 SUB PUSH2 0x460 JUMPI PUSH2 0x45F PUSH2 0x406 JUMP JUMPDEST JUMPDEST POP SWAP2 SWAP1 POP JUMP JUMPDEST PUSH1 0x0 DUP2 SWAP1 POP DUP2 PUSH1 0x0 MSTORE PUSH1 0x20 PUSH1 0x0 KECCAK256 SWAP1 POP SWAP2 SWAP1 POP JUMP JUMPDEST PUSH1 0x0 PUSH1 0x20 PUSH1 0x1F DUP4 ADD DIV SWAP1 POP SWAP2 SWAP1 POP JUMP JUMPDEST PUSH1 0x0 DUP3 DUP3 SHL SWAP1 POP SWAP3 SWAP2 POP POP JUMP JUMPDEST PUSH1 0x0 PUSH1 0x8 DUP4 MUL PUSH2 0x4C8 PUSH32 0xFFFFFFFFFFFFFFFFFFFFFFFFFFFFFFFFFFFFFFFFFFFFFFFFFFFFFFFFFFFFFFFF DUP3 PUSH2 0x48B JUMP JUMPDEST PUSH2 0x4D2 DUP7 DUP4 PUSH2 0x48B JUMP JUMPDEST SWAP6 POP DUP1 NOT DUP5 AND SWAP4 POP DUP1 DUP7 AND DUP5 OR SWAP3 POP POP POP SWAP4 SWAP3 POP POP POP JUMP JUMPDEST PUSH1 0x0 DUP2 SWAP1 POP SWAP2 SWAP1 POP JUMP JUMPDEST PUSH1 0x0 DUP2 SWAP1 POP SWAP2 SWAP1 POP JUMP JUMPDEST PUSH1 0x0 PUSH2 0x519 PUSH2 0x514 PUSH2 0x50F DUP5 PUSH2 0x4EA JUMP JUMPDEST PUSH2 0x4F4 JUMP JUMPDEST PUSH2 0x4EA JUMP JUMPDEST SWAP1 POP SWAP2 SWAP1 POP JUMP JUMPDEST PUSH1 0x0 DUP2 SWAP1 POP SWAP2 SWAP1 POP JUMP JUMPDEST PUSH2 0x533 DUP4 PUSH2 0x4FE JUMP JUMPDEST PUSH2 0x547 PUSH2 0x53F DUP3 PUSH2 0x520 JUMP JUMPDEST DUP5 DUP5 SLOAD PUSH2 0x498 JUMP JUMPDEST DUP3 SSTORE POP POP POP POP JUMP JUMPDEST PUSH1 0x0 SWAP1 JUMP JUMPDEST PUSH2 0x55C PUSH2 0x54F JUMP JUMPDEST PUSH2 0x567 DUP2 DUP5 DUP5 PUSH2 0x52A JUMP JUMPDEST POP POP POP JUMP JUMPDEST JUMPDEST DUP2 DUP2 LT ISZERO PUSH2 0x58B JUMPI PUSH2 0x580 PUSH1 0x0 DUP3 PUSH2 0x554 JUMP JUMPDEST PUSH1 0x1 DUP2 ADD SWAP1 POP PUSH2 0x56D JUMP JUMPDEST POP POP JUMP JUMPDEST PUSH1 0x1F DUP3 GT ISZERO PUSH2 0x5D0 JUMPI PUSH2 0x5A1 DUP2 PUSH2 0x466 JUMP JUMPDEST PUSH2 0x5AA DUP5 PUSH2 0x47B JUMP JUMPDEST DUP2 ADD PUSH1 0x20 DUP6 LT ISZERO PUSH2 0x5B9 JUMPI DUP2 SWAP1 POP JUMPDEST PUSH2 0x5CD PUSH2 0x5C5 DUP6 PUSH2 0x47B JUMP JUMPDEST DUP4 ADD DUP3 PUSH2 0x56C JUMP JUMPDEST POP POP JUMPDEST POP POP POP JUMP JUMPDEST PUSH1 0x0 DUP3 DUP3 SHR SWAP1 POP SWAP3 SWAP2 POP POP JUMP JUMPDEST PUSH1 0x0 PUSH2 0x5F3 PUSH1 0x0 NOT DUP5 PUSH1 0x8 MUL PUSH2 0x5D5 JUMP JUMPDEST NOT DUP1 DUP4 AND SWAP2 POP POP SWAP3 SWAP2 POP POP JUMP JUMPDEST PUSH1 0x0 PUSH2 0x60C DUP4 DUP4 PUSH2 0x5E2 JUMP JUMPDEST SWAP2 POP DUP3 PUSH1 0x2 MUL DUP3 OR SWAP1 POP SWAP3 SWAP2 POP POP JUMP JUMPDEST PUSH2 0x625 DUP3 PUSH2 0x293 JUMP JUMPDEST PUSH8 0xFFFFFFFFFFFFFFFF DUP2 GT ISZERO PUSH2 0x63E JUMPI PUSH2 0x63D PUSH2 0x3D7 JUMP JUMPDEST JUMPDEST PUSH2 0x648 DUP3 SLOAD PUSH2 0x435 JUMP JUMPDEST PUSH2 0x653 DUP3 DUP3 DUP6 PUSH2 0x58F JUMP JUMPDEST PUSH1 0x0 PUSH1 0x20 SWAP1 POP PUSH1 0x1F DUP4 GT PUSH1 0x1 DUP2 EQ PUSH2 0x686 JUMPI PUSH1 0x0 DUP5 ISZERO PUSH2 0x674 JUMPI DUP3 DUP8 ADD MLOAD SWAP1 POP JUMPDEST PUSH2 0x67E DUP6 DUP3 PUSH2 0x600 JUMP JUMPDEST DUP7 SSTORE POP PUSH2 0x6E6 JUMP JUMPDEST PUSH1 0x1F NOT DUP5 AND PUSH2 0x694 DUP7 PUSH2 0x466 JUMP JUMPDEST PUSH1 0x0 JUMPDEST DUP3 DUP2 LT ISZERO PUSH2 0x6BC JUMPI DUP5 DUP10 ADD MLOAD DUP3 SSTORE PUSH1 0x1 DUP3 ADD SWAP2 POP PUSH1 0x20 DUP6 ADD SWAP5 POP PUSH1 0x20 DUP2 ADD SWAP1 POP PUSH2 0x697 JUMP JUMPDEST DUP7 DUP4 LT ISZERO PUSH2 0x6D9 JUMPI DUP5 DUP10 ADD MLOAD PUSH2 0x6D5 PUSH1 0x1F DUP10 AND DUP3 PUSH2 0x5E2 JUMP JUMPDEST DUP4 SSTORE POP JUMPDEST PUSH1 0x1 PUSH1 0x2 DUP9 MUL ADD DUP9 SSTORE POP POP POP JUMPDEST POP POP POP POP POP POP JUMP INVALID PUSH6 0x72726F72202D KECCAK256 PUSH10 0x6E737566716669636965 PUSH15 0x74207065726D697373696F6E73A264 PUSH10 0x7066735822122007F01B SLT SHR 0xCB SWAP13 SGT 0xCA 0xE3 DUP13 0xC MOD PUSH15 0xB3A89963C55E4DA9DF5CA0BA3E8862 MOD 0xE4 STATICCALL PUSH5 0x736F6C6343 STOP ADDMOD SLT STOP CALLER "
				},
				"gasEstimates": {
					"creation": {
						"codeDepositCost": "372200",
						"executionCost": "24677",
						"totalCost": "396877"
					},
					"external": {
						"errorPermissions()": "infinite",
						"getSenderAddress()": "2632",
						"isAdmin()": "2546",
						"message()": "infinite"
					}
				},
				"methodIdentifiers": {
					"errorPermissions()": "3096a04f",
					"getSenderAddress()": "42948e18",
					"isAdmin()": "b6db75a0",
					"message()": "e21f37ce"
				}
			},
			"storageLayout": {
				"storage": [
					{
						"astId": 3,
						"contract": "contracts/4_getSenderAddress.sol:GetSenderAddress",
						"label": "adminAddress",
						"offset": 0,
						"slot": "0",
						"type": "t_address"
					},
					{
						"astId": 5,
						"contract": "contracts/4_getSenderAddress.sol:GetSenderAddress",
						"label": "message",
						"offset": 0,
						"slot": "1",
						"type": "t_string_storage"
					}
				],
				"types": {
					"t_address": {
						"encoding": "inplace",
						"label": "address",
						"numberOfBytes": "20"
					},
					"t_string_storage": {
						"encoding": "bytes",
						"label": "string",
						"numberOfBytes": "32"
					}
				}
			},
			"userdoc": {
				"kind": "user",
				"methods": {},
				"version": 1
			}
		}
	}
}