{
	"data": {
		"bytecode": {
			"linkReferences": {},
			"object": "608060405234801561001057600080fd5b50610d84806100206000396000f3fe608060405234801561001057600080fd5b506004361061004c5760003560e01c80633db2254b146100515780634c648bfb1461005b578063773742691461008b578063e7531be6146100a7575b600080fd5b6100596100c3565b005b61007560048036038101906100709190610618565b610106565b60405161008291906106e0565b60405180910390f35b6100a560048036038101906100a0919061073e565b6101f8565b005b6100c160048036038101906100bc919061079a565b610280565b005b6001600081819054906101000a900463ffffffff16809291906100e590610841565b91906101000a81548163ffffffff021916908363ffffffff16021790555050565b6060600061012b600160009054906101000a900463ffffffff1663ffffffff166102f2565b8360405160200161013d9291906108a9565b6040516020818303038152906040528051906020012090506000808281526020019081526020016000208054610172906108fc565b80601f016020809104026020016040519081016040528092919081815260200182805461019e906108fc565b80156101eb5780601f106101c0576101008083540402835291602001916101eb565b820191906000526020600020905b8154815290600101906020018083116101ce57829003601f168201915b5050505050915050919050565b600160009054906101000a900463ffffffff1663ffffffff168263ffffffff161061022257600080fd5b60006102338363ffffffff166102f2565b826040516020016102459291906108a9565b604051602081830303815290604052805190602001209050600080828152602001908152602001600020600061027b9190610461565b505050565b60006102a3600160009054906101000a900463ffffffff1663ffffffff166102f2565b836040516020016102b59291906108a9565b6040516020818303038152906040528051906020012090508160008083815260200190815260200160002090816102ec9190610ae3565b50505050565b606060008203610339576040518060400160405280600181526020017f3000000000000000000000000000000000000000000000000000000000000000815250905061045c565b600082905060005b6000821461036b57808061035490610bb5565b915050600a826103649190610c2c565b9150610341565b60008167ffffffffffffffff811115610387576103866104ed565b5b6040519080825280601f01601f1916602001820160405280156103b95781602001600182028036833780820191505090505b50905060006001836103cb9190610c5d565b90505b6000861461045457600a866103e39190610c91565b60306103ef9190610cc2565b60f81b8282806103fe90610cf6565b93508151811061041157610410610d1f565b5b60200101907effffffffffffffffffffffffffffffffffffffffffffffffffffffffffffff1916908160001a905350600a8661044d9190610c2c565b95506103ce565b819450505050505b919050565b50805461046d906108fc565b6000825580601f1061047f575061049e565b601f01602090049060005260206000209081019061049d91906104a1565b5b50565b5b808211156104ba5760008160009055506001016104a2565b5090565b6000604051905090565b600080fd5b600080fd5b600080fd5b600080fd5b6000601f19601f8301169050919050565b7f4e487b7100000000000000000000000000000000000000000000000000000000600052604160045260246000fd5b610525826104dc565b810181811067ffffffffffffffff82111715610544576105436104ed565b5b80604052505050565b60006105576104be565b9050610563828261051c565b919050565b600067ffffffffffffffff821115610583576105826104ed565b5b61058c826104dc565b9050602081019050919050565b82818337600083830152505050565b60006105bb6105b684610568565b61054d565b9050828152602081018484840111156105d7576105d66104d7565b5b6105e2848285610599565b509392505050565b600082601f8301126105ff576105fe6104d2565b5b813561060f8482602086016105a8565b91505092915050565b60006020828403121561062e5761062d6104c8565b5b600082013567ffffffffffffffff81111561064c5761064b6104cd565b5b610658848285016105ea565b91505092915050565b600081519050919050565b600082825260208201905092915050565b60005b8381101561069b578082015181840152602081019050610680565b60008484015250505050565b60006106b282610661565b6106bc818561066c565b93506106cc81856020860161067d565b6106d5816104dc565b840191505092915050565b600060208201905081810360008301526106fa81846106a7565b905092915050565b600063ffffffff82169050919050565b61071b81610702565b811461072657600080fd5b50565b60008135905061073881610712565b92915050565b60008060408385031215610755576107546104c8565b5b600061076385828601610729565b925050602083013567ffffffffffffffff811115610784576107836104cd565b5b610790858286016105ea565b9150509250929050565b600080604083850312156107b1576107b06104c8565b5b600083013567ffffffffffffffff8111156107cf576107ce6104cd565b5b6107db858286016105ea565b925050602083013567ffffffffffffffff8111156107fc576107fb6104cd565b5b610808858286016105ea565b9150509250929050565b7f4e487b7100000000000000000000000000000000000000000000000000000000600052601160045260246000fd5b600061084c82610702565b915063ffffffff820361086257610861610812565b5b600182019050919050565b600081905092915050565b600061088382610661565b61088d818561086d565b935061089d81856020860161067d565b80840191505092915050565b60006108b58285610878565b91506108c18284610878565b91508190509392505050565b7f4e487b7100000000000000000000000000000000000000000000000000000000600052602260045260246000fd5b6000600282049050600182168061091457607f821691505b602082108103610927576109266108cd565b5b50919050565b60008190508160005260206000209050919050565b60006020601f8301049050919050565b600082821b905092915050565b60006008830261098f7fffffffffffffffffffffffffffffffffffffffffffffffffffffffffffffffff82610952565b6109998683610952565b95508019841693508086168417925050509392505050565b6000819050919050565b6000819050919050565b60006109e06109db6109d6846109b1565b6109bb565b6109b1565b9050919050565b6000819050919050565b6109fa836109c5565b610a0e610a06826109e7565b84845461095f565b825550505050565b600090565b610a23610a16565b610a2e8184846109f1565b505050565b5b81811015610a5257610a47600082610a1b565b600181019050610a34565b5050565b601f821115610a9757610a688161092d565b610a7184610942565b81016020851015610a80578190505b610a94610a8c85610942565b830182610a33565b50505b505050565b600082821c905092915050565b6000610aba60001984600802610a9c565b1980831691505092915050565b6000610ad38383610aa9565b9150826002028217905092915050565b610aec82610661565b67ffffffffffffffff811115610b0557610b046104ed565b5b610b0f82546108fc565b610b1a828285610a56565b600060209050601f831160018114610b4d5760008415610b3b578287015190505b610b458582610ac7565b865550610bad565b601f198416610b5b8661092d565b60005b82811015610b8357848901518255600182019150602085019450602081019050610b5e565b86831015610ba05784890151610b9c601f891682610aa9565b8355505b6001600288020188555050505b505050505050565b6000610bc0826109b1565b91507fffffffffffffffffffffffffffffffffffffffffffffffffffffffffffffffff8203610bf257610bf1610812565b5b600182019050919050565b7f4e487b7100000000000000000000000000000000000000000000000000000000600052601260045260246000fd5b6000610c37826109b1565b9150610c42836109b1565b925082610c5257610c51610bfd565b5b828204905092915050565b6000610c68826109b1565b9150610c73836109b1565b9250828203905081811115610c8b57610c8a610812565b5b92915050565b6000610c9c826109b1565b9150610ca7836109b1565b925082610cb757610cb6610bfd565b5b828206905092915050565b6000610ccd826109b1565b9150610cd8836109b1565b9250828201905080821115610cf057610cef610812565b5b92915050565b6000610d01826109b1565b915060008203610d1457610d13610812565b5b600182039050919050565b7f4e487b7100000000000000000000000000000000000000000000000000000000600052603260045260246000fdfea264697066735822122018ed72a927a168c04a07b22ac3493e749985acdae85ed56b4f602dcf7e60a79364736f6c63430008120033",
			"opcodes": "PUSH1 0x80 PUSH1 0x40 MSTORE CALLVALUE DUP1 ISZERO PUSH2 0x10 JUMPI PUSH1 0x0 DUP1 REVERT JUMPDEST POP PUSH2 0xD84 DUP1 PUSH2 0x20 PUSH1 0x0 CODECOPY PUSH1 0x0 RETURN INVALID PUSH1 0x80 PUSH1 0x40 MSTORE CALLVALUE DUP1 ISZERO PUSH2 0x10 JUMPI PUSH1 0x0 DUP1 REVERT JUMPDEST POP PUSH1 0x4 CALLDATASIZE LT PUSH2 0x4C JUMPI PUSH1 0x0 CALLDATALOAD PUSH1 0xE0 SHR DUP1 PUSH4 0x3DB2254B EQ PUSH2 0x51 JUMPI DUP1 PUSH4 0x4C648BFB EQ PUSH2 0x5B JUMPI DUP1 PUSH4 0x77374269 EQ PUSH2 0x8B JUMPI DUP1 PUSH4 0xE7531BE6 EQ PUSH2 0xA7 JUMPI JUMPDEST PUSH1 0x0 DUP1 REVERT JUMPDEST PUSH2 0x59 PUSH2 0xC3 JUMP JUMPDEST STOP JUMPDEST PUSH2 0x75 PUSH1 0x4 DUP1 CALLDATASIZE SUB DUP2 ADD SWAP1 PUSH2 0x70 SWAP2 SWAP1 PUSH2 0x618 JUMP JUMPDEST PUSH2 0x106 JUMP JUMPDEST PUSH1 0x40 MLOAD PUSH2 0x82 SWAP2 SWAP1 PUSH2 0x6E0 JUMP JUMPDEST PUSH1 0x40 MLOAD DUP1 SWAP2 SUB SWAP1 RETURN JUMPDEST PUSH2 0xA5 PUSH1 0x4 DUP1 CALLDATASIZE SUB DUP2 ADD SWAP1 PUSH2 0xA0 SWAP2 SWAP1 PUSH2 0x73E JUMP JUMPDEST PUSH2 0x1F8 JUMP JUMPDEST STOP JUMPDEST PUSH2 0xC1 PUSH1 0x4 DUP1 CALLDATASIZE SUB DUP2 ADD SWAP1 PUSH2 0xBC SWAP2 SWAP1 PUSH2 0x79A JUMP JUMPDEST PUSH2 0x280 JUMP JUMPDEST STOP JUMPDEST PUSH1 0x1 PUSH1 0x0 DUP2 DUP2 SWAP1 SLOAD SWAP1 PUSH2 0x100 EXP SWAP1 DIV PUSH4 0xFFFFFFFF AND DUP1 SWAP3 SWAP2 SWAP1 PUSH2 0xE5 SWAP1 PUSH2 0x841 JUMP JUMPDEST SWAP2 SWAP1 PUSH2 0x100 EXP DUP2 SLOAD DUP2 PUSH4 0xFFFFFFFF MUL NOT AND SWAP1 DUP4 PUSH4 0xFFFFFFFF AND MUL OR SWAP1 SSTORE POP POP JUMP JUMPDEST PUSH1 0x60 PUSH1 0x0 PUSH2 0x12B PUSH1 0x1 PUSH1 0x0 SWAP1 SLOAD SWAP1 PUSH2 0x100 EXP SWAP1 DIV PUSH4 0xFFFFFFFF AND PUSH4 0xFFFFFFFF AND PUSH2 0x2F2 JUMP JUMPDEST DUP4 PUSH1 0x40 MLOAD PUSH1 0x20 ADD PUSH2 0x13D SWAP3 SWAP2 SWAP1 PUSH2 0x8A9 JUMP JUMPDEST PUSH1 0x40 MLOAD PUSH1 0x20 DUP2 DUP4 SUB SUB DUP2 MSTORE SWAP1 PUSH1 0x40 MSTORE DUP1 MLOAD SWAP1 PUSH1 0x20 ADD KECCAK256 SWAP1 POP PUSH1 0x0 DUP1 DUP3 DUP2 MSTORE PUSH1 0x20 ADD SWAP1 DUP2 MSTORE PUSH1 0x20 ADD PUSH1 0x0 KECCAK256 DUP1 SLOAD PUSH2 0x172 SWAP1 PUSH2 0x8FC JUMP JUMPDEST DUP1 PUSH1 0x1F ADD PUSH1 0x20 DUP1 SWAP2 DIV MUL PUSH1 0x20 ADD PUSH1 0x40 MLOAD SWAP1 DUP2 ADD PUSH1 0x40 MSTORE DUP1 SWAP3 SWAP2 SWAP1 DUP2 DUP2 MSTORE PUSH1 0x20 ADD DUP3 DUP1 SLOAD PUSH2 0x19E SWAP1 PUSH2 0x8FC JUMP JUMPDEST DUP1 ISZERO PUSH2 0x1EB JUMPI DUP1 PUSH1 0x1F LT PUSH2 0x1C0 JUMPI PUSH2 0x100 DUP1 DUP4 SLOAD DIV MUL DUP4 MSTORE SWAP2 PUSH1 0x20 ADD SWAP2 PUSH2 0x1EB JUMP JUMPDEST DUP3 ADD SWAP2 SWAP1 PUSH1 0x0 MSTORE PUSH1 0x20 PUSH1 0x0 KECCAK256 SWAP1 JUMPDEST DUP2 SLOAD DUP2 MSTORE SWAP1 PUSH1 0x1 ADD SWAP1 PUSH1 0x20 ADD DUP1 DUP4 GT PUSH2 0x1CE JUMPI DUP3 SWAP1 SUB PUSH1 0x1F AND DUP3 ADD SWAP2 JUMPDEST POP POP POP POP POP SWAP2 POP POP SWAP2 SWAP1 POP JUMP JUMPDEST PUSH1 0x1 PUSH1 0x0 SWAP1 SLOAD SWAP1 PUSH2 0x100 EXP SWAP1 DIV PUSH4 0xFFFFFFFF AND PUSH4 0xFFFFFFFF AND DUP3 PUSH4 0xFFFFFFFF AND LT PUSH2 0x222 JUMPI PUSH1 0x0 DUP1 REVERT JUMPDEST PUSH1 0x0 PUSH2 0x233 DUP4 PUSH4 0xFFFFFFFF AND PUSH2 0x2F2 JUMP JUMPDEST DUP3 PUSH1 0x40 MLOAD PUSH1 0x20 ADD PUSH2 0x245 SWAP3 SWAP2 SWAP1 PUSH2 0x8A9 JUMP JUMPDEST PUSH1 0x40 MLOAD PUSH1 0x20 DUP2 DUP4 SUB SUB DUP2 MSTORE SWAP1 PUSH1 0x40 MSTORE DUP1 MLOAD SWAP1 PUSH1 0x20 ADD KECCAK256 SWAP1 POP PUSH1 0x0 DUP1 DUP3 DUP2 MSTORE PUSH1 0x20 ADD SWAP1 DUP2 MSTORE PUSH1 0x20 ADD PUSH1 0x0 KECCAK256 PUSH1 0x0 PUSH2 0x27B SWAP2 SWAP1 PUSH2 0x461 JUMP JUMPDEST POP POP POP JUMP JUMPDEST PUSH1 0x0 PUSH2 0x2A3 PUSH1 0x1 PUSH1 0x0 SWAP1 SLOAD SWAP1 PUSH2 0x100 EXP SWAP1 DIV PUSH4 0xFFFFFFFF AND PUSH4 0xFFFFFFFF AND PUSH2 0x2F2 JUMP JUMPDEST DUP4 PUSH1 0x40 MLOAD PUSH1 0x20 ADD PUSH2 0x2B5 SWAP3 SWAP2 SWAP1 PUSH2 0x8A9 JUMP JUMPDEST PUSH1 0x40 MLOAD PUSH1 0x20 DUP2 DUP4 SUB SUB DUP2 MSTORE SWAP1 PUSH1 0x40 MSTORE DUP1 MLOAD SWAP1 PUSH1 0x20 ADD KECCAK256 SWAP1 POP DUP2 PUSH1 0x0 DUP1 DUP4 DUP2 MSTORE PUSH1 0x20 ADD SWAP1 DUP2 MSTORE PUSH1 0x20 ADD PUSH1 0x0 KECCAK256 SWAP1 DUP2 PUSH2 0x2EC SWAP2 SWAP1 PUSH2 0xAE3 JUMP JUMPDEST POP POP POP POP JUMP JUMPDEST PUSH1 0x60 PUSH1 0x0 DUP3 SUB PUSH2 0x339 JUMPI PUSH1 0x40 MLOAD DUP1 PUSH1 0x40 ADD PUSH1 0x40 MSTORE DUP1 PUSH1 0x1 DUP2 MSTORE PUSH1 0x20 ADD PUSH32 0x3000000000000000000000000000000000000000000000000000000000000000 DUP2 MSTORE POP SWAP1 POP PUSH2 0x45C JUMP JUMPDEST PUSH1 0x0 DUP3 SWAP1 POP PUSH1 0x0 JUMPDEST PUSH1 0x0 DUP3 EQ PUSH2 0x36B JUMPI DUP1 DUP1 PUSH2 0x354 SWAP1 PUSH2 0xBB5 JUMP JUMPDEST SWAP2 POP POP PUSH1 0xA DUP3 PUSH2 0x364 SWAP2 SWAP1 PUSH2 0xC2C JUMP JUMPDEST SWAP2 POP PUSH2 0x341 JUMP JUMPDEST PUSH1 0x0 DUP2 PUSH8 0xFFFFFFFFFFFFFFFF DUP2 GT ISZERO PUSH2 0x387 JUMPI PUSH2 0x386 PUSH2 0x4ED JUMP JUMPDEST JUMPDEST PUSH1 0x40 MLOAD SWAP1 DUP1 DUP3 MSTORE DUP1 PUSH1 0x1F ADD PUSH1 0x1F NOT AND PUSH1 0x20 ADD DUP3 ADD PUSH1 0x40 MSTORE DUP1 ISZERO PUSH2 0x3B9 JUMPI DUP2 PUSH1 0x20 ADD PUSH1 0x1 DUP3 MUL DUP1 CALLDATASIZE DUP4 CALLDATACOPY DUP1 DUP3 ADD SWAP2 POP POP SWAP1 POP JUMPDEST POP SWAP1 POP PUSH1 0x0 PUSH1 0x1 DUP4 PUSH2 0x3CB SWAP2 SWAP1 PUSH2 0xC5D JUMP JUMPDEST SWAP1 POP JUMPDEST PUSH1 0x0 DUP7 EQ PUSH2 0x454 JUMPI PUSH1 0xA DUP7 PUSH2 0x3E3 SWAP2 SWAP1 PUSH2 0xC91 JUMP JUMPDEST PUSH1 0x30 PUSH2 0x3EF SWAP2 SWAP1 PUSH2 0xCC2 JUMP JUMPDEST PUSH1 0xF8 SHL DUP3 DUP3 DUP1 PUSH2 0x3FE SWAP1 PUSH2 0xCF6 JUMP JUMPDEST SWAP4 POP DUP2 MLOAD DUP2 LT PUSH2 0x411 JUMPI PUSH2 0x410 PUSH2 0xD1F JUMP JUMPDEST JUMPDEST PUSH1 0x20 ADD ADD SWAP1 PUSH31 0xFFFFFFFFFFFFFFFFFFFFFFFFFFFFFFFFFFFFFFFFFFFFFFFFFFFFFFFFFFFFFF NOT AND SWAP1 DUP2 PUSH1 0x0 BYTE SWAP1 MSTORE8 POP PUSH1 0xA DUP7 PUSH2 0x44D SWAP2 SWAP1 PUSH2 0xC2C JUMP JUMPDEST SWAP6 POP PUSH2 0x3CE JUMP JUMPDEST DUP2 SWAP5 POP POP POP POP POP JUMPDEST SWAP2 SWAP1 POP JUMP JUMPDEST POP DUP1 SLOAD PUSH2 0x46D SWAP1 PUSH2 0x8FC JUMP JUMPDEST PUSH1 0x0 DUP3 SSTORE DUP1 PUSH1 0x1F LT PUSH2 0x47F JUMPI POP PUSH2 0x49E JUMP JUMPDEST PUSH1 0x1F ADD PUSH1 0x20 SWAP1 DIV SWAP1 PUSH1 0x0 MSTORE PUSH1 0x20 PUSH1 0x0 KECCAK256 SWAP1 DUP2 ADD SWAP1 PUSH2 0x49D SWAP2 SWAP1 PUSH2 0x4A1 JUMP JUMPDEST JUMPDEST POP JUMP JUMPDEST JUMPDEST DUP1 DUP3 GT ISZERO PUSH2 0x4BA JUMPI PUSH1 0x0 DUP2 PUSH1 0x0 SWAP1 SSTORE POP PUSH1 0x1 ADD PUSH2 0x4A2 JUMP JUMPDEST POP SWAP1 JUMP JUMPDEST PUSH1 0x0 PUSH1 0x40 MLOAD SWAP1 POP SWAP1 JUMP JUMPDEST PUSH1 0x0 DUP1 REVERT JUMPDEST PUSH1 0x0 DUP1 REVERT JUMPDEST PUSH1 0x0 DUP1 REVERT JUMPDEST PUSH1 0x0 DUP1 REVERT JUMPDEST PUSH1 0x0 PUSH1 0x1F NOT PUSH1 0x1F DUP4 ADD AND SWAP1 POP SWAP2 SWAP1 POP JUMP JUMPDEST PUSH32 0x4E487B7100000000000000000000000000000000000000000000000000000000 PUSH1 0x0 MSTORE PUSH1 0x41 PUSH1 0x4 MSTORE PUSH1 0x24 PUSH1 0x0 REVERT JUMPDEST PUSH2 0x525 DUP3 PUSH2 0x4DC JUMP JUMPDEST DUP2 ADD DUP2 DUP2 LT PUSH8 0xFFFFFFFFFFFFFFFF DUP3 GT OR ISZERO PUSH2 0x544 JUMPI PUSH2 0x543 PUSH2 0x4ED JUMP JUMPDEST JUMPDEST DUP1 PUSH1 0x40 MSTORE POP POP POP JUMP JUMPDEST PUSH1 0x0 PUSH2 0x557 PUSH2 0x4BE JUMP JUMPDEST SWAP1 POP PUSH2 0x563 DUP3 DUP3 PUSH2 0x51C JUMP JUMPDEST SWAP2 SWAP1 POP JUMP JUMPDEST PUSH1 0x0 PUSH8 0xFFFFFFFFFFFFFFFF DUP3 GT ISZERO PUSH2 0x583 JUMPI PUSH2 0x582 PUSH2 0x4ED JUMP JUMPDEST JUMPDEST PUSH2 0x58C DUP3 PUSH2 0x4DC JUMP JUMPDEST SWAP1 POP PUSH1 0x20 DUP2 ADD SWAP1 POP SWAP2 SWAP1 POP JUMP JUMPDEST DUP3 DUP2 DUP4 CALLDATACOPY PUSH1 0x0 DUP4 DUP4 ADD MSTORE POP POP POP JUMP JUMPDEST PUSH1 0x0 PUSH2 0x5BB PUSH2 0x5B6 DUP5 PUSH2 0x568 JUMP JUMPDEST PUSH2 0x54D JUMP JUMPDEST SWAP1 POP DUP3 DUP2 MSTORE PUSH1 0x20 DUP2 ADD DUP5 DUP5 DUP5 ADD GT ISZERO PUSH2 0x5D7 JUMPI PUSH2 0x5D6 PUSH2 0x4D7 JUMP JUMPDEST JUMPDEST PUSH2 0x5E2 DUP5 DUP3 DUP6 PUSH2 0x599 JUMP JUMPDEST POP SWAP4 SWAP3 POP POP POP JUMP JUMPDEST PUSH1 0x0 DUP3 PUSH1 0x1F DUP4 ADD SLT PUSH2 0x5FF JUMPI PUSH2 0x5FE PUSH2 0x4D2 JUMP JUMPDEST JUMPDEST DUP2 CALLDATALOAD PUSH2 0x60F DUP5 DUP3 PUSH1 0x20 DUP7 ADD PUSH2 0x5A8 JUMP JUMPDEST SWAP2 POP POP SWAP3 SWAP2 POP POP JUMP JUMPDEST PUSH1 0x0 PUSH1 0x20 DUP3 DUP5 SUB SLT ISZERO PUSH2 0x62E JUMPI PUSH2 0x62D PUSH2 0x4C8 JUMP JUMPDEST JUMPDEST PUSH1 0x0 DUP3 ADD CALLDATALOAD PUSH8 0xFFFFFFFFFFFFFFFF DUP2 GT ISZERO PUSH2 0x64C JUMPI PUSH2 0x64B PUSH2 0x4CD JUMP JUMPDEST JUMPDEST PUSH2 0x658 DUP5 DUP3 DUP6 ADD PUSH2 0x5EA JUMP JUMPDEST SWAP2 POP POP SWAP3 SWAP2 POP POP JUMP JUMPDEST PUSH1 0x0 DUP2 MLOAD SWAP1 POP SWAP2 SWAP1 POP JUMP JUMPDEST PUSH1 0x0 DUP3 DUP3 MSTORE PUSH1 0x20 DUP3 ADD SWAP1 POP SWAP3 SWAP2 POP POP JUMP JUMPDEST PUSH1 0x0 JUMPDEST DUP4 DUP2 LT ISZERO PUSH2 0x69B JUMPI DUP1 DUP3 ADD MLOAD DUP2 DUP5 ADD MSTORE PUSH1 0x20 DUP2 ADD SWAP1 POP PUSH2 0x680 JUMP JUMPDEST PUSH1 0x0 DUP5 DUP5 ADD MSTORE POP POP POP POP JUMP JUMPDEST PUSH1 0x0 PUSH2 0x6B2 DUP3 PUSH2 0x661 JUMP JUMPDEST PUSH2 0x6BC DUP2 DUP6 PUSH2 0x66C JUMP JUMPDEST SWAP4 POP PUSH2 0x6CC DUP2 DUP6 PUSH1 0x20 DUP7 ADD PUSH2 0x67D JUMP JUMPDEST PUSH2 0x6D5 DUP2 PUSH2 0x4DC JUMP JUMPDEST DUP5 ADD SWAP2 POP POP SWAP3 SWAP2 POP POP JUMP JUMPDEST PUSH1 0x0 PUSH1 0x20 DUP3 ADD SWAP1 POP DUP2 DUP2 SUB PUSH1 0x0 DUP4 ADD MSTORE PUSH2 0x6FA DUP2 DUP5 PUSH2 0x6A7 JUMP JUMPDEST SWAP1 POP SWAP3 SWAP2 POP POP JUMP JUMPDEST PUSH1 0x0 PUSH4 0xFFFFFFFF DUP3 AND SWAP1 POP SWAP2 SWAP1 POP JUMP JUMPDEST PUSH2 0x71B DUP2 PUSH2 0x702 JUMP JUMPDEST DUP2 EQ PUSH2 0x726 JUMPI PUSH1 0x0 DUP1 REVERT JUMPDEST POP JUMP JUMPDEST PUSH1 0x0 DUP2 CALLDATALOAD SWAP1 POP PUSH2 0x738 DUP2 PUSH2 0x712 JUMP JUMPDEST SWAP3 SWAP2 POP POP JUMP JUMPDEST PUSH1 0x0 DUP1 PUSH1 0x40 DUP4 DUP6 SUB SLT ISZERO PUSH2 0x755 JUMPI PUSH2 0x754 PUSH2 0x4C8 JUMP JUMPDEST JUMPDEST PUSH1 0x0 PUSH2 0x763 DUP6 DUP3 DUP7 ADD PUSH2 0x729 JUMP JUMPDEST SWAP3 POP POP PUSH1 0x20 DUP4 ADD CALLDATALOAD PUSH8 0xFFFFFFFFFFFFFFFF DUP2 GT ISZERO PUSH2 0x784 JUMPI PUSH2 0x783 PUSH2 0x4CD JUMP JUMPDEST JUMPDEST PUSH2 0x790 DUP6 DUP3 DUP7 ADD PUSH2 0x5EA JUMP JUMPDEST SWAP2 POP POP SWAP3 POP SWAP3 SWAP1 POP JUMP JUMPDEST PUSH1 0x0 DUP1 PUSH1 0x40 DUP4 DUP6 SUB SLT ISZERO PUSH2 0x7B1 JUMPI PUSH2 0x7B0 PUSH2 0x4C8 JUMP JUMPDEST JUMPDEST PUSH1 0x0 DUP4 ADD CALLDATALOAD PUSH8 0xFFFFFFFFFFFFFFFF DUP2 GT ISZERO PUSH2 0x7CF JUMPI PUSH2 0x7CE PUSH2 0x4CD JUMP JUMPDEST JUMPDEST PUSH2 0x7DB DUP6 DUP3 DUP7 ADD PUSH2 0x5EA JUMP JUMPDEST SWAP3 POP POP PUSH1 0x20 DUP4 ADD CALLDATALOAD PUSH8 0xFFFFFFFFFFFFFFFF DUP2 GT ISZERO PUSH2 0x7FC JUMPI PUSH2 0x7FB PUSH2 0x4CD JUMP JUMPDEST JUMPDEST PUSH2 0x808 DUP6 DUP3 DUP7 ADD PUSH2 0x5EA JUMP JUMPDEST SWAP2 POP POP SWAP3 POP SWAP3 SWAP1 POP JUMP JUMPDEST PUSH32 0x4E487B7100000000000000000000000000000000000000000000000000000000 PUSH1 0x0 MSTORE PUSH1 0x11 PUSH1 0x4 MSTORE PUSH1 0x24 PUSH1 0x0 REVERT JUMPDEST PUSH1 0x0 PUSH2 0x84C DUP3 PUSH2 0x702 JUMP JUMPDEST SWAP2 POP PUSH4 0xFFFFFFFF DUP3 SUB PUSH2 0x862 JUMPI PUSH2 0x861 PUSH2 0x812 JUMP JUMPDEST JUMPDEST PUSH1 0x1 DUP3 ADD SWAP1 POP SWAP2 SWAP1 POP JUMP JUMPDEST PUSH1 0x0 DUP2 SWAP1 POP SWAP3 SWAP2 POP POP JUMP JUMPDEST PUSH1 0x0 PUSH2 0x883 DUP3 PUSH2 0x661 JUMP JUMPDEST PUSH2 0x88D DUP2 DUP6 PUSH2 0x86D JUMP JUMPDEST SWAP4 POP PUSH2 0x89D DUP2 DUP6 PUSH1 0x20 DUP7 ADD PUSH2 0x67D JUMP JUMPDEST DUP1 DUP5 ADD SWAP2 POP POP SWAP3 SWAP2 POP POP JUMP JUMPDEST PUSH1 0x0 PUSH2 0x8B5 DUP3 DUP6 PUSH2 0x878 JUMP JUMPDEST SWAP2 POP PUSH2 0x8C1 DUP3 DUP5 PUSH2 0x878 JUMP JUMPDEST SWAP2 POP DUP2 SWAP1 POP SWAP4 SWAP3 POP POP POP JUMP JUMPDEST PUSH32 0x4E487B7100000000000000000000000000000000000000000000000000000000 PUSH1 0x0 MSTORE PUSH1 0x22 PUSH1 0x4 MSTORE PUSH1 0x24 PUSH1 0x0 REVERT JUMPDEST PUSH1 0x0 PUSH1 0x2 DUP3 DIV SWAP1 POP PUSH1 0x1 DUP3 AND DUP1 PUSH2 0x914 JUMPI PUSH1 0x7F DUP3 AND SWAP2 POP JUMPDEST PUSH1 0x20 DUP3 LT DUP2 SUB PUSH2 0x927 JUMPI PUSH2 0x926 PUSH2 0x8CD JUMP JUMPDEST JUMPDEST POP SWAP2 SWAP1 POP JUMP JUMPDEST PUSH1 0x0 DUP2 SWAP1 POP DUP2 PUSH1 0x0 MSTORE PUSH1 0x20 PUSH1 0x0 KECCAK256 SWAP1 POP SWAP2 SWAP1 POP JUMP JUMPDEST PUSH1 0x0 PUSH1 0x20 PUSH1 0x1F DUP4 ADD DIV SWAP1 POP SWAP2 SWAP1 POP JUMP JUMPDEST PUSH1 0x0 DUP3 DUP3 SHL SWAP1 POP SWAP3 SWAP2 POP POP JUMP JUMPDEST PUSH1 0x0 PUSH1 0x8 DUP4 MUL PUSH2 0x98F PUSH32 0xFFFFFFFFFFFFFFFFFFFFFFFFFFFFFFFFFFFFFFFFFFFFFFFFFFFFFFFFFFFFFFFF DUP3 PUSH2 0x952 JUMP JUMPDEST PUSH2 0x999 DUP7 DUP4 PUSH2 0x952 JUMP JUMPDEST SWAP6 POP DUP1 NOT DUP5 AND SWAP4 POP DUP1 DUP7 AND DUP5 OR SWAP3 POP POP POP SWAP4 SWAP3 POP POP POP JUMP JUMPDEST PUSH1 0x0 DUP2 SWAP1 POP SWAP2 SWAP1 POP JUMP JUMPDEST PUSH1 0x0 DUP2 SWAP1 POP SWAP2 SWAP1 POP JUMP JUMPDEST PUSH1 0x0 PUSH2 0x9E0 PUSH2 0x9DB PUSH2 0x9D6 DUP5 PUSH2 0x9B1 JUMP JUMPDEST PUSH2 0x9BB JUMP JUMPDEST PUSH2 0x9B1 JUMP JUMPDEST SWAP1 POP SWAP2 SWAP1 POP JUMP JUMPDEST PUSH1 0x0 DUP2 SWAP1 POP SWAP2 SWAP1 POP JUMP JUMPDEST PUSH2 0x9FA DUP4 PUSH2 0x9C5 JUMP JUMPDEST PUSH2 0xA0E PUSH2 0xA06 DUP3 PUSH2 0x9E7 JUMP JUMPDEST DUP5 DUP5 SLOAD PUSH2 0x95F JUMP JUMPDEST DUP3 SSTORE POP POP POP POP JUMP JUMPDEST PUSH1 0x0 SWAP1 JUMP JUMPDEST PUSH2 0xA23 PUSH2 0xA16 JUMP JUMPDEST PUSH2 0xA2E DUP2 DUP5 DUP5 PUSH2 0x9F1 JUMP JUMPDEST POP POP POP JUMP JUMPDEST JUMPDEST DUP2 DUP2 LT ISZERO PUSH2 0xA52 JUMPI PUSH2 0xA47 PUSH1 0x0 DUP3 PUSH2 0xA1B JUMP JUMPDEST PUSH1 0x1 DUP2 ADD SWAP1 POP PUSH2 0xA34 JUMP JUMPDEST POP POP JUMP JUMPDEST PUSH1 0x1F DUP3 GT ISZERO PUSH2 0xA97 JUMPI PUSH2 0xA68 DUP2 PUSH2 0x92D JUMP JUMPDEST PUSH2 0xA71 DUP5 PUSH2 0x942 JUMP JUMPDEST DUP2 ADD PUSH1 0x20 DUP6 LT ISZERO PUSH2 0xA80 JUMPI DUP2 SWAP1 POP JUMPDEST PUSH2 0xA94 PUSH2 0xA8C DUP6 PUSH2 0x942 JUMP JUMPDEST DUP4 ADD DUP3 PUSH2 0xA33 JUMP JUMPDEST POP POP JUMPDEST POP POP POP JUMP JUMPDEST PUSH1 0x0 DUP3 DUP3 SHR SWAP1 POP SWAP3 SWAP2 POP POP JUMP JUMPDEST PUSH1 0x0 PUSH2 0xABA PUSH1 0x0 NOT DUP5 PUSH1 0x8 MUL PUSH2 0xA9C JUMP JUMPDEST NOT DUP1 DUP4 AND SWAP2 POP POP SWAP3 SWAP2 POP POP JUMP JUMPDEST PUSH1 0x0 PUSH2 0xAD3 DUP4 DUP4 PUSH2 0xAA9 JUMP JUMPDEST SWAP2 POP DUP3 PUSH1 0x2 MUL DUP3 OR SWAP1 POP SWAP3 SWAP2 POP POP JUMP JUMPDEST PUSH2 0xAEC DUP3 PUSH2 0x661 JUMP JUMPDEST PUSH8 0xFFFFFFFFFFFFFFFF DUP2 GT ISZERO PUSH2 0xB05 JUMPI PUSH2 0xB04 PUSH2 0x4ED JUMP JUMPDEST JUMPDEST PUSH2 0xB0F DUP3 SLOAD PUSH2 0x8FC JUMP JUMPDEST PUSH2 0xB1A DUP3 DUP3 DUP6 PUSH2 0xA56 JUMP JUMPDEST PUSH1 0x0 PUSH1 0x20 SWAP1 POP PUSH1 0x1F DUP4 GT PUSH1 0x1 DUP2 EQ PUSH2 0xB4D JUMPI PUSH1 0x0 DUP5 ISZERO PUSH2 0xB3B JUMPI DUP3 DUP8 ADD MLOAD SWAP1 POP JUMPDEST PUSH2 0xB45 DUP6 DUP3 PUSH2 0xAC7 JUMP JUMPDEST DUP7 SSTORE POP PUSH2 0xBAD JUMP JUMPDEST PUSH1 0x1F NOT DUP5 AND PUSH2 0xB5B DUP7 PUSH2 0x92D JUMP JUMPDEST PUSH1 0x0 JUMPDEST DUP3 DUP2 LT ISZERO PUSH2 0xB83 JUMPI DUP5 DUP10 ADD MLOAD DUP3 SSTORE PUSH1 0x1 DUP3 ADD SWAP2 POP PUSH1 0x20 DUP6 ADD SWAP5 POP PUSH1 0x20 DUP2 ADD SWAP1 POP PUSH2 0xB5E JUMP JUMPDEST DUP7 DUP4 LT ISZERO PUSH2 0xBA0 JUMPI DUP5 DUP10 ADD MLOAD PUSH2 0xB9C PUSH1 0x1F DUP10 AND DUP3 PUSH2 0xAA9 JUMP JUMPDEST DUP4 SSTORE POP JUMPDEST PUSH1 0x1 PUSH1 0x2 DUP9 MUL ADD DUP9 SSTORE POP POP POP JUMPDEST POP POP POP POP POP POP JUMP JUMPDEST PUSH1 0x0 PUSH2 0xBC0 DUP3 PUSH2 0x9B1 JUMP JUMPDEST SWAP2 POP PUSH32 0xFFFFFFFFFFFFFFFFFFFFFFFFFFFFFFFFFFFFFFFFFFFFFFFFFFFFFFFFFFFFFFFF DUP3 SUB PUSH2 0xBF2 JUMPI PUSH2 0xBF1 PUSH2 0x812 JUMP JUMPDEST JUMPDEST PUSH1 0x1 DUP3 ADD SWAP1 POP SWAP2 SWAP1 POP JUMP JUMPDEST PUSH32 0x4E487B7100000000000000000000000000000000000000000000000000000000 PUSH1 0x0 MSTORE PUSH1 0x12 PUSH1 0x4 MSTORE PUSH1 0x24 PUSH1 0x0 REVERT JUMPDEST PUSH1 0x0 PUSH2 0xC37 DUP3 PUSH2 0x9B1 JUMP JUMPDEST SWAP2 POP PUSH2 0xC42 DUP4 PUSH2 0x9B1 JUMP JUMPDEST SWAP3 POP DUP3 PUSH2 0xC52 JUMPI PUSH2 0xC51 PUSH2 0xBFD JUMP JUMPDEST JUMPDEST DUP3 DUP3 DIV SWAP1 POP SWAP3 SWAP2 POP POP JUMP JUMPDEST PUSH1 0x0 PUSH2 0xC68 DUP3 PUSH2 0x9B1 JUMP JUMPDEST SWAP2 POP PUSH2 0xC73 DUP4 PUSH2 0x9B1 JUMP JUMPDEST SWAP3 POP DUP3 DUP3 SUB SWAP1 POP DUP2 DUP2 GT ISZERO PUSH2 0xC8B JUMPI PUSH2 0xC8A PUSH2 0x812 JUMP JUMPDEST JUMPDEST SWAP3 SWAP2 POP POP JUMP JUMPDEST PUSH1 0x0 PUSH2 0xC9C DUP3 PUSH2 0x9B1 JUMP JUMPDEST SWAP2 POP PUSH2 0xCA7 DUP4 PUSH2 0x9B1 JUMP JUMPDEST SWAP3 POP DUP3 PUSH2 0xCB7 JUMPI PUSH2 0xCB6 PUSH2 0xBFD JUMP JUMPDEST JUMPDEST DUP3 DUP3 MOD SWAP1 POP SWAP3 SWAP2 POP POP JUMP JUMPDEST PUSH1 0x0 PUSH2 0xCCD DUP3 PUSH2 0x9B1 JUMP JUMPDEST SWAP2 POP PUSH2 0xCD8 DUP4 PUSH2 0x9B1 JUMP JUMPDEST SWAP3 POP DUP3 DUP3 ADD SWAP1 POP DUP1 DUP3 GT ISZERO PUSH2 0xCF0 JUMPI PUSH2 0xCEF PUSH2 0x812 JUMP JUMPDEST JUMPDEST SWAP3 SWAP2 POP POP JUMP JUMPDEST PUSH1 0x0 PUSH2 0xD01 DUP3 PUSH2 0x9B1 JUMP JUMPDEST SWAP2 POP PUSH1 0x0 DUP3 SUB PUSH2 0xD14 JUMPI PUSH2 0xD13 PUSH2 0x812 JUMP JUMPDEST JUMPDEST PUSH1 0x1 DUP3 SUB SWAP1 POP SWAP2 SWAP1 POP JUMP JUMPDEST PUSH32 0x4E487B7100000000000000000000000000000000000000000000000000000000 PUSH1 0x0 MSTORE PUSH1 0x32 PUSH1 0x4 MSTORE PUSH1 0x24 PUSH1 0x0 REVERT INVALID LOG2 PUSH5 0x6970667358 0x22 SLT KECCAK256 XOR 0xED PUSH19 0xA927A168C04A07B22AC3493E749985ACDAE85E 0xD5 PUSH12 0x4F602DCF7E60A79364736F6C PUSH4 0x43000812 STOP CALLER "
		},
		"gasEstimates": {
			"creation": {
				"codeDepositCost": "692000",
				"executionCost": "728",
				"totalCost": "692728"
			},
			"external": {
				"deleteAllReports()": "26677",
				"getCarfaxReport(string)": "infinite",
				"recoverGas(uint32,string)": "infinite",
				"setCarfaxReport(string,string)": "infinite"
			},
			"internal": {
				"uintToString(uint256)": "infinite"
			}
		},
		"methodIdentifiers": {
			"deleteAllReports()": "3db2254b",
			"getCarfaxReport(string)": "4c648bfb",
			"recoverGas(uint32,string)": "77374269",
			"setCarfaxReport(string,string)": "e7531be6"
		}
	},
	"abi": [
		{
			"inputs": [],
			"name": "deleteAllReports",
			"outputs": [],
			"stateMutability": "nonpayable",
			"type": "function"
		},
		{
			"inputs": [
				{
					"internalType": "string",
					"name": "_carVIN",
					"type": "string"
				}
			],
			"name": "getCarfaxReport",
			"outputs": [
				{
					"internalType": "string",
					"name": "",
					"type": "string"
				}
			],
			"stateMutability": "view",
			"type": "function"
		},
		{
			"inputs": [
				{
					"internalType": "uint32",
					"name": "_version",
					"type": "uint32"
				},
				{
					"internalType": "string",
					"name": "_carVIN",
					"type": "string"
				}
			],
			"name": "recoverGas",
			"outputs": [],
			"stateMutability": "nonpayable",
			"type": "function"
		},
		{
			"inputs": [
				{
					"internalType": "string",
					"name": "_carVIN",
					"type": "string"
				},
				{
					"internalType": "string",
					"name": "_reportJSON",
					"type": "string"
				}
			],
			"name": "setCarfaxReport",
			"outputs": [],
			"stateMutability": "nonpayable",
			"type": "function"
		}
	]
}